:020000040800F2
:1000000040100220F90200081935000851200008AC
:1000100005030008290B0008753C000800000000DB
:100020000000000000000000000000001D35000876
:100030008D0C0008000000001B350008C1350008C9
:100040001303000813030008130300081303000838
:100050001303000813030008130300081303000828
:100060001303000813030008130300081303000818
:100070001303000813030008130300081303000808
:1000800013030008130300081303000813030008F8
:1000900013030008130300081303000813030008E8
:1000A00013030008130300081303000813030008D8
:1000B00013030008130300081D360008130300088B
:1000C00013030008130300081303000813030008B8
:1000D00013030008FD3B0008130300081303000886
:1000E0001303000813030008130300081303000898
:1000F0001303000813030008130300081303000888
:100100001303000813030008130300081303000877
:100110001303000813030008130300081303000867
:100120001303000813030008130300081303000857
:100130001303000813030008130300081303000847
:100140001303000813030008130300081303000837
:100150001303000813030008130300081303000827
:100160001303000813030008130300081303000817
:100170001303000813030008130300080000000025
:1001800013030008130300081303000813030008F7
:1001900013030008130300081303000813030008E7
:1001A00013030008130300081303000813030008D7
:1001B00013030008130300081303000813030008C7
:1001C00013030008130300080000000013030008D5
:1001D00013030008130300081303000813030008A7
:1001E0001303000813030008130300081303000897
:1001F000130300081303000800F002F800F06DF884
:100200000AA090E8000C82448344AAF10107DA4571
:1002100001D100F062F8AFF2090EBAE80F0013F056
:10022000010F18BFFB1A43F001031847E4A60000B2
:1002300004A700000A444FF0000C10F8013B13F033
:10024000070408BF10F8014B1D1108BF10F8015B2F
:10025000641E05D010F8016B641E01F8016BF9D122
:1002600013F0080F1EBF10F8014BAD1C0C1B09D179
:100270006D1E58BF01F801CBFAD505E014F8016BEB
:1002800001F8016B6D1EF9D59142D6D3704700007D
:100290000023002400250026103A28BF78C1FBD88F
:1002A000520728BF30C148BF0B607047642900F077
:1002B000C780752900F0C480782900F0FD8063298B
:1002C00000F05483732900F05983002070471FB554
:1002D00005F02CFD1FBD10B510BD00F0D9FB114677
:1002E000FFF7F5FF04F03EFB00F0F7FB03B4FFF768
:1002F000F2FF03BC03F0CFFC0948804709480047E0
:10030000FEE7FEE7FEE7FEE7FEE7FEE7FEE7FEE7C5
:10031000FEE7FEE704480549054A064B7047000022
:10032000C5350008F9010008400A022040100220EB
:10033000400C0220400C02207047B2F120030AD585
:10034000C2F1200301FA02F120FA03F300FA02F0ED
:1003500041EA0301704700FA03F14FF000007047D3
:10036000B2F120030AD5C2F1200320FA02F001FA0B
:1003700003F321FA02F140EA0300704721FA03F087
:100380004FF00001704700000FB4044910B503AAF4
:10039000029800F0F7FA10BC5DF814FBA0000220F0
:1003A00070B5044685690068C10601D5302600E0B5
:1003B0002026C00707D070BDD4E901213046904700
:1003C000206A401C20626D1EF6D570BD70B50446D3
:1003D00085690078C00707D170BDD4E901212020CC
:1003E0009047206A401C20626D1EF6D570BD70B526
:1003F0000C460546012A05D02878800600D5EA6912
:10040000002302E0012305E05B1C934202D2E05C82
:100410000028F9D1A869E618C01AA861286A18440A
:1004200028622846FFF7BCFF04E0D5E9012114F853
:10043000010B9047B442F8D32846FFF7C7FF70BDC1
:100440002DE9F0410646002410687529314616A5AD
:1004500010D0AFF30080002802DA404213A507E075
:1004600031688A0701D512A502E0490704D511A514
:10047000012401E0AFF3008000210A2206F12407E5
:1004800009E0B0FBF2FCB0FBF2F302FB1C003030E1
:1004900078541846491C0028F3D123462A46304692
:1004A000BDE8F04100F0FFB9000000002D000000A1
:1004B0002B0000002000000070B504460D462146C8
:1004C0001068AFF300802188090502D50F4A7A44ED
:1004D00002E00E4A7A440E32002104F1240305E0C2
:1004E00000F00F060009965D5E54491C0028F7D104
:1004F00020780023000704D5702D02D009B1022313
:1005000011322046BDE8704000F0CDB9C69F000012
:100510002DE9F05F894604464FF0000ADFF874B118
:10052000FB44C0F820A02046E1688847002874D02A
:10053000252806D0D4E901219047206A401C20627A
:10054000F1E700265F462046E168884720280546F7
:1005500007DB312D05D2781910F8200C08B10643BD
:10056000F1E7B00701D526F00406C4F81CA0002767
:10057000C4F818A02A2D09D0284603F085FB38B30B
:1005800004EB8708303DC8F8185019E059F8041BEF
:10059000204604EB87029161E1688847012F0546F8
:1005A00018D1E069002820DA26F020061DE0D8F8EE
:1005B000180000EB800005EB40003038C8F8180048
:1005C0002046E1688847054603F05EFB0028EED12F
:1005D000012F0AD02E2D08D12046E16888477F1CC4
:1005E0000546022F46F02006C4DBA069002803DA86
:1005F000404246F00106A061F00701D026F0100647
:100600006C2D0BD0682D09D04C2D39D06A2D35D0EA
:10061000742D35D07A2D33D016E038E0E1682F46BE
:1006200020468847B842054609D16C2F26D04FF4A2
:100630008060E168064320468847054604E06C2F49
:100640001AD04FF4807006430DB3A5F1410019286C
:1006500002D8203546F400664A46294620462660E0
:100660004E46FFF723FE80B101280BD0F61D26F081
:10067000070000F1080956E74020E4E78020D8E7AA
:100680000020D6E706F104094DE7284652E7206A24
:10069000BDE8F09F9C9F000010B5002000F084F999
:1006A000FFF719FEBDE81040012003F0F4BA10B5C1
:1006B000431C02E010F8011B71B18107FAD14FF021
:1006C000013202C88C1A8C4314EAC211F9D0C01A44
:1006D0000A0603D0C01E10BDC01A10BD0A0401D006
:1006E000801E10BD0902FCD0401E10BD40EA01036F
:1006F00070B59B072ED14FF00136042A2AD308C8C3
:1007000010C99D1B9D43121F15EAC61517D0D8B2FC
:10071000E1B2401A50EA056110D198B2A1B2401A74
:1007200050EA05410AD123F07F4024F07F41401A6E
:1007300050EA052102D1180EA0EB146070BDA3424F
:10074000DBD018BA21BA884201D9012070BD4FF020
:10075000FF3070BD0AB9002070BD10F8013B11F8E0
:10076000014B63B1A3420AD1521E08D010F8013BDD
:1007700011F8014B1BB1A34201D1521EEDD1181B40
:1007800070BD032A40F2308010F0030C00F0158099
:1007900011F8013BBCF1020F624498BF11F801CB84
:1007A00000F8013B38BF11F8013BA2F1040298BFE9
:1007B00000F801CB38BF00F8013B11F0030300F053
:1007C000FA80083AC0F0088051F8043B083A51F822
:1007D00004CBA0E80810F5E7121D5CBF51F8043BFC
:1007E00040F8043BAFF30080D20724BF11F8013B6F
:1007F00011F801CB48BF11F8012B24BF00F8013BD1
:1008000000F801CB48BF00F8012B70474FF0000201
:100810000429C0F0128010F0030C00F01B80CCF112
:10082000040CBCF1020F18BF00F8012BA8BF20F880
:10083000022BA1EB0C0100F00DB85FEAC17C24BFD4
:1008400000F8012B00F8012B48BF00F8012B70477E
:100850004FF0000200B5134694469646203922BF59
:10086000A0E80C50A0E80C50B1F12001BFF4F7AFA4
:10087000090728BFA0E80C5048BF0CC05DF804EB86
:10088000890028BF40F8042B08BF704748BF20F8F4
:10089000022B11F0804F18BF00F8012B70477047F2
:1008A0007047704770472DE9F0470D4699469246CC
:1008B000044600F124080168880604D5E06921F0A7
:1008C0001001216000E00120A84201DD471B00E08B
:1008D0000027A1697A1902EB0900081AA0612078A3
:1008E000C00602D42046FFF75BFD002608E0D4E9ED
:1008F00001211AF806009047206A401C761C2062ED
:100900004E45F4DB2078C0060AD52046FFF748FDA7
:1009100006E0D4E9012130209047206A401C206283
:10092000381EA7F10107F4DC07E0D4E9012118F82B
:1009300005009047206A401C2062281EA5F1010591
:10094000F3DC2046FFF742FD2078000602D50220A6
:10095000BDE8F0870120FBE710B5436913B1AFF3A1
:10096000008001E0FFF743FD012010BD127800F187
:1009700024010A7000224A700122EDE711684FF04D
:10098000FF32E9E7074B70B50D467B4400F04BF8AA
:100990000446284600F05AF810B14FF0FF3070BD01
:1009A000204670BDCB3D000010B500F059F8BDE801
:1009B000104000F04FB810B5203AC0F00B80B1E8FD
:1009C0001850203AA0E81850B1E81850A0E8185084
:1009D000BFF4F5AF5FEA027C24BFB1E81850A0E88D
:1009E000185044BF18C918C0BDE810405FEA827CA7
:1009F00024BF51F8043B40F8043B08BF7047D207BE
:100A000028BF31F8023B48BF11F8012B28BF20F85E
:100A1000023B48BF00F8012B7047000001694A1CE7
:100A200002610878704700B58FB0CDE9013100212F
:100A3000059105497944CDE9031011466846FFF751
:100A400067FD0FB000BD0000E5FFFFFF007B00F079
:100A500080007047002801D003F01DB970470000E6
:100A600010B5002102A000F041F8012010BD0000E7
:100A7000534947414252543A2041626E6F726D6150
:100A80006C207465726D696E6174696F6E00000030
:100A9000754600F045F8AE4605006946534620F01D
:100AA0000700854618B020B5FFF734FCBDE82040AC
:100AB0004FF000064FF000074FF000084FF0000B1A
:100AC00021F00701AC46ACE8C009ACE8C009ACE8CD
:100AD000C009ACE8C0098D46704710B50446AFF3B5
:100AE00000802046BDE81040FFF700BC70B5054609
:100AF0000C460A2000E06D1C03F0CEF835B12878D2
:100B00000028F8D102E0641C03F0C6F814B1207884
:100B10000028F8D1BDE870400A2003F0BDB80000FD
:100B200000487047E0090220FEE7000030B5DFF81A
:100B30007CC08BB01C4D0E9CCCF800500CF14005D5
:100B4000CCF830501C35CCF834500125CCF80430AA
:100B5000CCF81020CCE9024000246046CCE9051412
:100B6000CCF81C40CCE90845CCF82840CCF82C4007
:100B700000F018F900281EBF01200BB030BD009412
:100B80000E20039469460194CDE90440CDE9085054
:100B900002940648CDE9064500F07AF8002818BF0F
:100BA00002200BB030BD0000006800402409022084
:100BB000134B4FF0AA0C70B500221C6B0029C4F82F
:100BC00000C01C6BC4F804C01C6BA2601C6BE2600C
:100BD000D3F830C0CCF810100AD91C6B02F1140500
:100BE00010F802C0521C92B2914204F805C0F4D829
:100BF00003480A2100F0BAF9002818BF012070BD8F
:100C00002409022070B4BFF34F8FBFF36F8F1A49CE
:100C100000200860194D296841F400312960BFF3B4
:100C20004F8FBFF36F8F16490860BFF34F8F081FB8
:100C3000006843F6FF76134AC0F34E3CC0F3C90484
:100C400006EA4C11204641EA80731360401EFAD236
:100C5000BCF1010CF4D2BFF34F8F286840F4803010
:100C60002860BFF34F8FBFF36F8F0748016841F0D3
:100C70000401016070BC704750EF00E014ED00E02B
:100C800084ED00E060EF00E09CEF00E070470000C2
:100C90000A7D012303FA02F203684048834218BF29
:100CA0003F48D0F8003243F00103C0F80032D0F8DA
:100CB000003223F47C53C0F80032D0F80032D1F86F
:100CC00024C043EA0C23C0F80032D0F81C3293430E
:100CD000C0F81C32CB69D3B9D0F80C329343C0F8BA
:100CE0000C32B1F80CC04B686CF31F43D1F814C040
:100CF00000EBCC0CCCF84032B1F808C00B686CF3B8
:100D00001F43D1F814C000EBCC0CCCF84432CB69B3
:100D1000012B1AD1D0F80C321343C0F80C32B1F8C1
:100D200000C04B686CF31F43D1F814C000EBCC0C2F
:100D3000CCF84032B1F808C0CB686CF31F43D1F84F
:100D400014C000EBCC0CCCF844328B69002BD0F8EB
:100D500004320CBF93431343C0F804320B6923B928
:100D6000D0F814329343C0F814320B69012B04D12C
:100D7000D0F814321343C0F81432096A012904D19F
:100D8000D0F81C121143C0F81C12D0F8001221F048
:100D90000101C0F80012002070470000003400403C
:100DA000006400402DE9F04104004FF0000704BF4B
:100DB0000120BDE8F08194F83800002620B92046D3
:100DC00084F8396000F09EF8022084F8380020682A
:100DD000016821F0020101602068016841F0010111
:100DE000016000F0D5FA0546206840684FF003081E
:100DF00010F0010F09D100F0CBFA401B0A2862D88D
:100E00002068406810F0010FF5D02068416811F0AB
:100E1000010F69D0A169012901680CBF41F080016F
:100E200021F080010160E0690128206801680CBFA1
:100E300041F0400121F040010160206A0128206852
:100E400001680CBF41F0200121F020010160606ABF
:100E50000128206801680CBF41F0100121F0100149
:100E60000160A06A0128206801680CBF41F00801F8
:100E700021F008010160E06A0128206801680CBFC8
:100E800041F0040121F004010160D4E902010843AA
:100E9000D4E90412114308436168491E08432168DC
:100EA000C8612068016821F00101016000F070FA5A
:100EB00005462068406810F0010F10D000F068FA75
:100EC000401B0A2806D984F83880032084F839604A
:100ED000BDE8F0812068406810F0010FEED1206875
:100EE000406810F0010F00D037B1E663012084F8AC
:100EF00038000020BDE8F081042084F8380001208B
:100F0000BDE8F08116484DF804ED87B0016841F066
:100F100000710160016801F000710591016841F004
:100F200080610160006800F0806005900D480168F4
:100F300041F0020101600068012100F0020005900B
:100F4000602000900220CDE9010103900920049067
:100F50006946054800F0FEF807B05DF804FB0000A4
:100F60004038024030380240000402402DE9F05F72
:100F7000026804460E46906810F0806F01BF9068CA
:100F800010F0006F906810F0805F7DD094F8390009
:100F9000012804BF0220BDE8F09F012084F8390039
:100FA00094F8380022280CBF3220122084F8380030
:100FB000906810F0806F18BF002571D04FF4C0709A
:100FC00000EB0510115801F001011150216B8A68E6
:100FD000002A6CD0236853F800C04CEA0202D1F812
:100FE0000CC049684CEAC10111431950216B0A7CBD
:100FF00002F00F020A6122684FF4C27101EB051181
:10100000535823F00F03535022685358D4F830C07C
:10101000DCF810C043EA0C035350216B4FF4C47347
:1010200003EB05130A7DD1F8151042EA012122686D
:10103000D150216B4FF4C67303EB05130A7ED1F830
:10104000191042EA01212268D15021680A5842F061
:1010500001020A5000F09CF9DFF8C8800746DFF86B
:10106000C8904FF0000BDFF8C4A05DB32068012DDD
:1010700080682DD03AEA000036D0B6F1FF3F2BD081
:101080003EB100F085F901E045E009E0C01BB04247
:1010900022D9032084F8380084F839B0BDE8F09FE5
:1010A000906810F0006F14BF0125022586E72268C2
:1010B0001358D1F80CC0098843EA0C0343EA4151A4
:1010C000115093E72068806838EA0000D5D10BE022
:1010D00039EA0000D1D107E09DB12068012D806878
:1010E00015D03AEA0000C8D194F8380032280CBF75
:1010F0002220012084F83800002084F839B0BDE8AF
:10110000F09F2068806838EA0000B6D1ECE739EA41
:101110000000B2D1E8E7042084F838000120BDE8DF
:10112000F09F00000300000400030008000003100B
:1011300090F83510022903D08021416501207047C5
:10114000052180F835100068016821F00101016077
:10115000002070472DE9F84FDFF81C920022DFF8DD
:1011600014820F2709F1040A4FF0010E0B680EFAE2
:1011700002F52B40AB4240F0F780D1F804C0BCF13F
:10118000020F18BFBCF1120F12D14FEAD20C00EBC4
:101190008C0CDCF820605407E40E07FA04FB26EA06
:1011A0000B06D1F810B00BFA04F43443CCF820400D
:1011B00006684FEA420C91F804B003240BF0030BCD
:1011C00004FA0CF4A6430BFA0CFB4BEA0606066085
:1011D0004E68012E18BF022E03D0112E18BF122EFA
:1011E00011D18668D1F80CB0A6430BFA0CFB4BEA80
:1011F00006068660466826EA05050E79C6F30016DF
:10120000964035434560C56825EA04048D6805FAB3
:101210000CFC4CEA040CC0F80CC0D1F804C01CF063
:10122000805F7CD0D8F800C04CF4804CC8F800C077
:10123000D8F800C00CF4804CCDF800C022F0030CAC
:101240000CF1804505F59835D5F808C89407240FAA
:1012500007FA04F62CEA0606A0F1804CBCF5003C27
:1012600048D0A0F1804CBCF5013C08BF4FF0010C08
:1012700040D0A0F1804CBCF5023C08BF4FF0020CFE
:1012800038D0A0F1804CBCF5033C08BF4FF0030CF4
:1012900030D0A0F1804CBCF5043C08BF4FF0040CEA
:1012A00028D0A0F1804CBCF5053C08BF4FF0050CE0
:1012B00020D0A0F1804CBCF5063C08BF4FF0060CD6
:1012C00018D0A0F1804CBCF5073C08BF4FF0070CCC
:1012D00010D0A0F1804CBCF5083C08BF4FF0080CC2
:1012E00008D0A0F1804CBCF5093C0CBF4FF0090CB4
:1012F0004FF00A0C0CFA04FC4CEA060CC5F808C8BE
:10130000D9F800C04C682CEA030C14F4803F18BFD5
:101310004CEA030CC9F800C0DAF800C000E023E092
:101320004C682CEA030C14F4003F18BF4CEA030C81
:10133000CAF800C0114CD4F800C04D682CEA030C68
:1013400015F4801F18BF4CEA030CC4F800C00C4C05
:10135000D4F800C04D682CEA030C15F4001F18BF28
:101360004CEA030CC4F800C0521C102AFFF4FEAE75
:10137000BDE8F88F44380240003C0140083C014081
:101380000C3C0140002A08BF09048161704700003D
:10139000014800687047000094000220024801687C
:1013A000491C01607047000094000220074810B5F6
:1013B000016841F400710160052000F0B3F80F20CE
:1013C00000F006F800F06EF8002010BD003C02406E
:1013D00010B5044607484FF47A720068B0FBF2F08B
:1013E00000F01CFC00222146501E00F069F800208D
:1013F00010BD00000000022070B5044690F8A00067
:101400008C46012804BF022070BD0125022084F80B
:10141000A05084F8A10003EB830000EBC30004EBB1
:10142000800000F13801C0F838C0006E6044C1E9A6
:101430000102C86A10441A46C860204601F078FFCD
:101440002068456284F8A150002084F8A00070BD97
:1014500070B5044690F8A0008C46012804BF022015
:1014600070BD0125022084F8A05084F8A10003EB90
:10147000830000EBC300002604EB800000F138017C
:101480002046C1E9006CC1E90262C1E90AC21A46FC
:1014900001F04EFF2068456284F8A150002084F8D6
:1014A000A06070BD7047012200F01F0102FA01F137
:1014B0004009800000F1E020C0F8001170470000F2
:1014C000174B4DF8044D1B68C3F30223C3F1070CFF
:1014D000BCF1040F88BF4FF0040C1C1D072C34BF57
:1014E0000023DB1E012404FA0CFCACF1010C0CEA15
:1014F0000101994004FA03F35B1E1A4011430028CE
:101500004FEA0111B8BF00F00F0000F1E020B4BFB6
:1015100080F8141D80F800145DF8044B704700003B
:101520000CED00E0074A00F0070011684FF6FF03DA
:10153000194041EA002040F0FD7040F080601060EA
:10154000704700000CED00E01C4838B5016841F020
:101550008051016000681A4C00F0805000902068B3
:1015600040F480302060FFF713FF0546606810F4F8
:10157000803F09D1FFF70CFF401BB0F57A7F14D8EC
:10158000606810F4803FF5D0206840F4003020609F
:10159000FFF7FEFE0546606810F4003F0BD1FFF731
:1015A000F7FE401BB0F57A7F01D9032038BD606893
:1015B00010F4003FF3D0002038BD00004038024056
:1015C000007000402DE9F047DFF8688104460D46C1
:1015D000D8F8000000F00F00A8420CD2D8F80000A4
:1015E00020F00F002843C8F80000D8F8000000F0F1
:1015F0000F00A84270D120784F4F10F0020F05D095
:101600003868A16820F0F00008433860207810F0B6
:10161000010F4ED060684949012820D0096802288E
:1016200022D011F0020F57D0396821F0030108438E
:101630003860FFF7ADFE0646606841F28839012840
:1016400016D00228386800F00C0021D0F8B1FFF75E
:101650009FFE801B484528D90320BDE8F087096814
:1016600011F4003FE0D137E011F0007FDCD133E02E
:10167000386800F00C0004281BD0FFF789FE801B9F
:101680004845E9D8386800F00C000428F5D110E08E
:1016900008280ED0FFF77CFE801B4845DCD8386850
:1016A00000F00C000828F5D103E0386810F00C0FAA
:1016B000CDD1D8F8000000F00F00A8420FD9D8F81B
:1016C000000020F00F002843C8F80000D8F8000000
:1016D00000F00F00A84202D00120BDE8F08720787A
:1016E00010F0040F05D03868E16820F4E05008439A
:1016F0003860207810F0080F06D03868216920F48F
:10170000604040EAC100386000F04EF83968F022CD
:1017100092FAA2F201F0F001B2FA82F2D140084A44
:10172000515CC840074908600F20FFF751FE0020B8
:10173000BDE8F087003C0240083802400038024013
:10174000405D000800000220084809490068096857
:101750004FF4E05292FAA2F201F4E051B2FA82F2AE
:10176000D140044A515CC84070470000000002208C
:1017700008380240505D00080848094900680968B7
:101780004FF4604292FAA2F201F46041B2FA82F29E
:10179000D140044A515CC84070470000000002205C
:1017A00008380240505D00082148006810F00C0124
:1017B000204808BF7047DFF880C0042904BF604696
:1017C0007047082918BF70474DF8044D1B4A11682F
:1017D000136801F03F0113F4800F47F6C0730BD07C
:1017E000BCFBF1F01168194093FAA3F3B3FA83F349
:1017F000D94000FB01F00AE0B0FBF1F0116819409C
:1018000093FAA3F3B3FA83F3D94000FB01F0116814
:101810004FF440325DF8044B92FAA2F201F44031E9
:10182000B2FA82F2D140491C4900B0FBF1F0704796
:10183000083802400024F40040787D01043802405A
:101840002DE9F84FDFF8A88304460078A8F10407D3
:1018500010F0010FA7F104055AD0D8F8000000F0ED
:101860000C00042809D0D8F8000000F00C0008286B
:101870000CD1386810F4800F08D0286810F4003FAD
:1018800046D06068002800F0AF8141E06068B0F5A4
:10189000803F04BF286840F480300AD010B1B0F512
:1018A000A02F11D0286820F480302860286820F408
:1018B000802028606068D0B1FFF76AFD064628687E
:1018C00010F4003F08D023E0286840F4802028600E
:1018D000286840F48030ECE7FFF75AFD801B64284D
:1018E00000F22581286810F4003FF5D010E0FFF7E2
:1018F0004FFD0646286810F4003F09D0FFF748FD69
:10190000801B642800F21381286810F4003FF5D191
:10191000207810F0020F50D0D8F800004FF0F809EE
:1019200010F00C0F18D0D8F8000000F00C000828B8
:1019300004BF386810F4800F0ED0E06800282868D3
:1019400028D040F001002860FFF722FD06462868F5
:1019500010F0020F09D011E0286810F0020F1CBF30
:10196000E06801280AD000F03FB9FFF711FD801BA5
:1019700002287DD8286810F0020FF6D0286899FA5E
:10198000A9F22169B2FA82F220F0F80091400843EE
:10199000286012E020F001002860FFF7F9FC0646FD
:1019A000286810F0020F08D0FFF7F2FC801B022815
:1019B0005ED8286810F0020FF6D1207810F0080FDA
:1019C00033D0DFF8309260690028D9F8000016D0D3
:1019D00040F00100C9F80000FFF7DAFC0646D9F82C
:1019E000000010F0020F20D1FFF7D2FC801B02286C
:1019F0003ED8D9F8000010F0020FF5D015E020F025
:101A00000100C9F80000FFF7C3FC0646D9F8000042
:101A100010F0020F09D0FFF7BBFC801B022827D86B
:101A2000D9F8000010F0020FF5D1207810F0040F63
:101A300063D07148016841F08051016000686F4EC9
:101A400000F080500090306840F480703060FFF704
:101A50009FFC8146306810F4807F0BD1FFF798FC23
:101A6000A0EB0900642862D8306810F4807F00E0A1
:101A70005DE0F3D0A068624E012804BF306840F0FA
:101A8000010009D008B1052813D0306820F001000A
:101A90003060306820F004003060A06841F2883A7D
:101AA000D0B1FFF775FC8146306810F0020F08D006
:101AB00023E0306840F004003060306840F00100FE
:101AC000EAE7FFF765FCA0EB090050452FD8306826
:101AD00010F0020FF5D010E0FFF75AFC8146306895
:101AE00010F0020F09D0FFF753FCA0EB090050459E
:101AF0001DD8306810F0020FF5D1A069E8B3D8F80E
:101B0000001001F00C0108296ED00228286820F08E
:101B1000807028600ED0FFF73BFC0446286810F068
:101B2000007F5ED0FFF734FC001B022855D903204C
:101B3000BDE8F88FFFF72CFC0646286810F0007F00
:101B400008D0FFF725FC801B0228F0D8286810F089
:101B5000007FF6D1D4E9070147F6C0724FF0FF339A
:101B600092FAA2F20843616AB2FA82F29140A26A42
:101B700003EB52024FF4403300E032E093FAA3F358
:101B8000B3FA83F39A4011434FF070620843E16A5D
:101B900092FAA2F2B2FA82F291404FF0E042084388
:101BA000216B92FAA2F2B2FA82F2914008433860B5
:101BB000286840F080702860FFF7EAFB0446286838
:101BC00010F0007F0DD1FFF7E3FB001B0228AED819
:101BD000286810F0007FF6D003E0286810F0007F3E
:101BE000A0D10020BDE8F88F0120BDE8F88F0000EB
:101BF000083802407438024040380240007000400B
:101C0000703802404FF0E021042808690CBF40F012
:101C1000040020F00400086170470000401EB0F18D
:101C2000807F24BF012070474FF0E0214861F02001
:101C3000044A82F8140D0020886107200861002002
:101C4000704700000FE000E0002804BF012070474B
:101C500010B5044690F83900002804BF204600F073
:101C60000CF8022084F839002068211D01F0F0FCF6
:101C7000012084F83900002010BD70470168CA684F
:101C800042F00102CA600068016841F00101016090
:101C9000002070477047000070B501680446C869AD
:101CA0000A688B6810F00F0F4FF0200551D040F2FA
:101CB000011C13EA0C0F7DD010F0010F18BF12F4B5
:101CC000807F07D04FF0010CC1F820C0E16E41F0D9
:101CD0000101E16610F0020F18BF13F0010F08D0E8
:101CE000D4F800C00221CCF82010E16E41F00401CC
:101CF000E16610F0040F18BF13F0010F08D0D4F8FC
:101D000000C00421CCF82010E16E41F00201E16630
:101D100010F0080F0CD002F0200103F0010319436A
:101D200006D0236808211962E16E41F00801E166DE
:101D3000E16E002908BF70BD10F0200F1EBF12F029
:101D4000200F204601F08DFDE06E10F0080F10D13D
:101D50000AE010F0200F18BF12F0200F39D02046F3
:101D6000BDE8704001F07DBD2068806810F0400F34
:101D700029D02068016821F4907101602068816891
:101D800021F00101816084F86A502068816811F0B7
:101D9000400F14D0816821F040018160606E70B105
:101DA0002D490165606EFFF7C3F9002808BF70BDBB
:101DB000606E00E00DE0016DBDE870400847204610
:101DC000FFF768FF70BD2046FFF764FF0020E06664
:101DD00070BD10F0800F18BF12F0800F2CD094F857
:101DE0006900212818BF70BDB4F8520090B1A068F6
:101DF000B0F5805F04BF20690028E06C14D0411C5E
:101E0000E164216800788862B4F85200401EA4F8AA
:101E1000520070BD086820F08000086020680168EA
:101E200041F04001016070BD0088C0F30800886285
:101E3000E06C801CE064E7E710F0400F14BF12F084
:101E4000400F70BD20460A6822F040020A6084F804
:101E5000695000F0FCF870BD4F380008002804BF3E
:101E60000120704710B5044690F8690028B9002099
:101E700084F86800204600F029F8242084F86900DE
:101E80002068016821F001010160204601F028FD71
:101E9000012808BF10BD606A00281CBF204601F061
:101EA00039FC2068416821F49041416020688168D4
:101EB00021F02A0181602068016841F00101016080
:101EC0002046BDE8104001F092BC000030B5044649
:101ED000006887B0A0F18041B1F588311CBF07B020
:101EE00030BD1B48016841F001010160006800F04D
:101EF000010005901748016841F010010160006879
:101F00000121154D00F0100005904FF40070009075
:101F10000220CDE90101039007206946049028467C
:101F2000FFF718F92815694600902846FFF712F9BF
:101F30002068016841F0200101602520FFF7B3FA15
:101F4000032225201146FFF7BBFA07B030BD000081
:101F50003038024044380240000002402DE9F84F7A
:101F6000044690F86A00984616460D4620286AD125
:101F7000002D12BF002E0120BDE8F88F94F86800F4
:101F8000012860D0012084F868004FF00009C4F8EF
:101F90006C90222084F86A00FFF7FAF9A4F85860E0
:101FA0008246A4F85A60FF21A068B0F5805F05D092
:101FB0007F2250B1B0F1805F0CD012E02069002880
:101FC00008BF40F2FF1002D109E02069E8B9A4F887
:101FD0005C1006E02069002818BF3F2015D0A4F847
:101FE0005C00B4F85C60F7B2B4F85A0000225346C3
:101FF000401EA4F85A0020212046CDF8008001F0B0
:10200000C3FD28B10320BDE8F88FA4F85C20E8E701
:10201000A068B0F5805F04BF206900282068406A8E
:1020200019BF384005F8010B304025F8020BB4F811
:102030005A000028D8D1202084F86A00002084F8B3
:102040006890BDE8F88F0220BDE8F88F70477047B0
:10205000FEE700002DE9F041104E0746104800242D
:102060003188006820B13846BDE8F04101F06CB815
:10207000708800FB01F50021084600F073FD094956
:1020800030890880002D86BFB8B20749BDE8F081CD
:102090000880641CA542FBD8BDE8F0814C080220F2
:1020A00004090220FEFF0760000008602DE9F05FD0
:1020B0003D4C3E4DA071296839B101F055F8E88AD0
:1020C0002080288B6080BDE8F09F37492C232B258A
:1020D0004FF0F0094FF4305E49F2413A4FF4487640
:1020E0004FF02A0C89884FF4A0784FF4F07245F233
:1020F000105B45F2103760B1A4F800805145A4F898
:10210000029018BFB9422ED12381A4F80AC0A5813C
:1021100040E0A4F800905145A4F8028018BFB942ED
:1021200009D12381B942A4F80AC0A58104BFA4F84B
:102130000080628033E059450AD1A4F808E04FF4EA
:10214000285060814FF42C50A0812280668026E0C8
:10215000A1F5C850633822D123816581A4F80CC051
:10216000228066801BE059450AD1A4F808E04FF4AC
:10217000285060814FF42C50A0812680628009E0B5
:10218000A1F5C850633805D12381A4F80AC0A58100
:1021900026806280B94204BF2280A4F80280002019
:1021A000BDE8F05F00F050BB4C080220040902209B
:1021B0002DE9F04F002682465F1A3546A2EB000853
:1021C0008946B8F1000F83B0C8BF012007DC0FBFFC
:1021D00000204FF0FF30C8F10008019000D10190BD
:1021E000002FC8BF012006DC0FBF00204FF0FF30DA
:1021F0007F42009000D10090B845CCBF44463C4699
:102200004FF0000B601C52BF029003B0BDE8F08F8E
:102210001FFA8AF315481FFA89F1006828B114489B
:102220000268184600F0B4FF0AE0184600F09AFC75
:1022300010480189104801800D4810490088088025
:102240004644A6423D4402DD0198361B8244A54225
:1022500002DD00982D1B81440BF101001FFA80FB69
:1022600002988345D4DD03B0BDE8F08F0409022055
:10227000A40002204C080220FEFF07600000086056
:102280002DE9F0411C4615460E4607460B46FFF762
:102290008FFF3A46234631461046FFF789FF234613
:1022A0002A4619463846FFF783FF2A462346314619
:1022B0001046BDE8F041FFF77BBF00002DE9F04F6D
:1022C0000024814615004FF0030085B08846A0EB3E
:1022D000450644BF05B0BDE8F08F6B4FDFF8ACA1F9
:1022E000DFF8ACB109EB040083B20090A8EB050065
:1022F000039081B26748006820B13A68184600F040
:1023000047FF09E0184600F02DFCBAF80800ABF8CA
:10231000000061493888088009EB050083B201900C
:10232000A8EB0400029081B25A48006820B13A68D4
:10233000184600F02DFF09E0184600F013FCBAF82B
:102340000800ABF80000544938880880019883B22F
:1023500008EB0400019081B24E48006820B13A6851
:10236000184600F015FF09E0184600F0FBFBBAF82C
:102370000800ABF80000484938880880009883B20C
:1023800008EB0500049081B24248006820B13A6829
:10239000184600F0FDFE09E0184600F0E3FBBAF82D
:1023A0000800ABF800003C4938880880A9EB04001D
:1023B000009083B2049881B23648006820B13A6830
:1023C000184600F0E5FE09E0184600F0CBFBBAF82D
:1023D0000800ABF80000304938880880A9EB0500F8
:1023E000049083B2019881B22A48006820B13A680B
:1023F000184600F0CDFE09E0184600F0B3FBBAF82D
:102400000800ABF80000244938880880009883B29F
:10241000039881B21F48006820B13A68184600F05E
:10242000B7FE09E0184600F09DFBBAF80800ABF8CB
:102430000000194938880880164A0498029980B229
:10244000126889B21AB13A6800F0A2FE08E000F002
:1024500089FBBAF80800ABF800000F4938880880FB
:10246000641C002EBCBF06EB8400861D05DB601BD0
:102470006D1E06EB800000F10A06AC427FF732AF1A
:1024800005B0BDE8F08F0000A40002204C08022037
:10249000FEFF076004090220000008602DE9F84FE4
:1024A000934B1B681BB1BDE8F84F00F071BEDFF81D
:1024B00044A20C0ADFF84092CBB2D446070ABAF81D
:1024C000045009F10206BCF80C1000F0FF08BCF83B
:1024D0000AC0A5F5134BBBF1410B1CBFA5F5A04BE2
:1024E000BBF5447B09D0A5F5A04BBBF5A26B3DD055
:1024F000A5F5C857633F7CD0F2E0ADF800C0BDF849
:102500000000ADF80000BDF80000A9F80000ADF82B
:102510000070BDF80000ADF80000BDF8000030808C
:10252000ADF80080BDF80000ADF80000BDF8000077
:102530003080ADF80010BDF80000ADF80000BDF827
:102540000000A9F80000ADF80040BDF80000ADF8AB
:102550000000BDF800003080ADF80030BDF800008C
:10256000ADF80000BDF800003080B9E0ADF800C063
:10257000BDF80000ADF80000BDF80000A9F80000AB
:10258000ADF80070BDF80000ADF80000BDF8000027
:1025900030800CF10100ADF80000BDF80000ADF88E
:1025A0000000BDF80000A9F80000ADF80080BDF8FB
:1025B0000000ADF80000BDF800003080ADF800105C
:1025C000BDF80000ADF80000BDF80000A9F800005B
:1025D000ADF80040BDF80000ADF80000BDF8000007
:1025E0003080481CADF80000BDF80000ADF80000D8
:1025F00000E00DE0BDF80000A9F80000ADF80030E3
:10260000BDF80000ADF80000BDF80000308067E0C4
:102610009AF8065025B9BAF80050281A401E80B220
:10262000ADF800C0BDF800C0ADF800C0BDF800C0F6
:10263000A9F800C04FEA102CADF800C0BDF800505A
:10264000ADF80050BDF800503580C0B2ADF80000C4
:10265000BDF80050ADF80050BDF800503580ADF821
:1026600000C0BDF800C0ADF800C0BDF800C0A6F8BD
:1026700000C0ADF80000BDF80000ADF80000BDF8E6
:1026800000003080ADF80010BDF80000ADF800008B
:10269000BDF80000A9F80000ADF80040BDF800004A
:1026A000ADF80000BDF800003080ADF80030BDF896
:1026B0000000ADF80000BDF800003080ADF800402B
:1026C000BDF80000ADF80000BDF800003080ADF8A6
:1026D0000030BDF80000ADF80000BDF8000030800B
:1026E000BAF80800A9F800003280BDE8F88F0000B1
:1026F000040902204C080220FEFF07602DE9F84F74
:102700001F46194B83460C460A981B6833B13B465B
:102710000090584600F05EFDBDE8F88FA2EB0B017B
:10272000491C8DB2BC4288BFBDE8F88FDFF83C90F1
:1027300086B2DFF83CA00AF102082146584600F0B4
:1027400011FAB9F80800AAF800000020002D05D9F8
:10275000A8F80060401C80B28542F9D8601C84B2A1
:10276000BC42EAD9BDE8F88F040902204C080220D7
:10277000FEFF076038B5304C2288824287BF6288EE
:102780008A42002038BD2D4A12681AB1BDE838408F
:1027900000F0A8BD00F0E6F9A18841F663122848D0
:1027A000A1F51343413B1EBFA1F5A043B3F544730C
:1027B00091420AD12E23ADF80030BDF80030ADF8BB
:1027C0000030BDF8003003800EE0A1F5AA43103BB5
:1027D0000AD14FF43853ADF80030BDF80030ADF8F1
:1027E0000030BDF800300380164B1888ADF80000AB
:1027F000BDF80000914214BF022038BD401EC0B297
:10280000FCD21888ADF80000BDF800200220401E60
:10281000C0B2FCD21888ADF80000BDF80000D1B2FB
:102820004FF6FF7303EA012102F47842890A42EA73
:10283000411141EAD02038BD4C0802200409022091
:10284000FEFF07600000086078B4C44C002241F627
:1028500063152146A3798988012B04D0002B08BF7A
:10286000A94202D018E0A94216D0082814D2DFE805
:1028700000F00406080A0C0E101206200CE00720D7
:102880000AE0042008E0052006E0012004E0002022
:1028900002E0032000E0022045F21033A1F5134CC2
:1028A00045F21056BCF1410C18BF994204D0B14218
:1028B0001EBFA94278BC7047082812D2DFE800F09A
:1028C000110406080A0C0E1080220AE0402208E0DB
:1028D000C02206E0202204E0602202E0A02200E004
:1028E000E022B1420CBF4FF458503620994218BF35
:1028F000B14203D0A94218BF42F00802984B188099
:1029000003F1020CACF80020A9420CD0934812F05D
:10291000200F4288008802D0824204D901E0904210
:1029200001D92280608000258C48B142828940898B
:10293000ADF800007DD1BDF80010ADF80010BDF875
:1029400000101980ADF80050BDF80010ADF800106F
:10295000BDF80010ACF80010411CADF80010BDF837
:102960000010ADF80010BDF800101980ADF800504F
:10297000BDF80010ADF80010BDF80010ACF8001064
:10298000811CADF80010BDF80010ADF80010BDF8C6
:10299000001019802188491E0E0AADF80060BDF8AC
:1029A0000060ADF80060BDF80060ACF80060C01CCD
:1029B000ADF80000BDF80000ADF80000BDF8000063
:1029C0001880C8B2ADF80000BDF80000ADF80000F6
:1029D000BDF80000ACF80000ADF80020BDF8000024
:1029E000ADF80000BDF800001880ADF80050BDF84B
:1029F0000000ADF80000BDF80000ACF80000501C6D
:102A0000ADF80000BDF80000ADF80000BDF8000012
:102A10001880ADF80050BDF80000ADF80000BDF81A
:102A20000000ACF80000901CADF80000BDF80000FC
:102A300000E028E0ADF80000BDF8000018806088D4
:102A4000401E010AADF80010BDF80010ADF80010EE
:102A5000BDF80010ACF80010D11CADF80010BDF8A6
:102A60000010ADF80010BDF800101980C0B2ADF82C
:102A70000000BDF80000ADF80000BDF80000ACF8A3
:102A8000000078BC7047BDF80000ADF80000BDF84C
:102A900000001880ADF80050BDF80000ADF800004F
:102AA000BDF80000ACF80000ADF80050BDF8000023
:102AB000ADF80000BDF80000ACF800002088401E12
:102AC000010AADF80010BDF80010ADF80010BDF817
:102AD0000010ACF80010C0B2ADF80000BDF8000066
:102AE000ADF80000BDF80000ACF80000ADF8002023
:102AF000BDF80000ADF80000BDF800001880ADF88A
:102B00000050BDF80000ADF80000BDF80000ACF8C2
:102B10000000ADF80050BDF80000ADF80000BDF8B1
:102B20000000ACF800006088401E010AADF80010FB
:102B3000BDF80010ADF80010BDF80010ACF80010A2
:102B4000C0B2ADF80000BDF80000ADF80000BDF85F
:102B50000000ACF8000078BC704700004C08022070
:102B6000FEFF07602DE9F807DFF8AC820B0ACCB254
:102B7000DFF8A8924146050AB8F8046000F0FF0C9F
:102B80008A8909F102074989A6F5134ABAF1410A6F
:102B90001CBFA6F5A04ABAF5447A5CD0A6F5C85A7F
:102BA000BAF1630A7ED0A6F5AA4010381CBFBDE872
:102BB000F8077047ADF80010BDF80000ADF8000050
:102BC000BDF80000A9F80000ADF80050BDF8000005
:102BD000ADF80000BDF800003880481CADF80000DA
:102BE000BDF80000ADF80000BDF80000A9F8000035
:102BF000ADF800C0BDF80000ADF80000BDF8000061
:102C00003880ADF80020BDF80000ADF80000BDF838
:102C10000000A9F80000ADF80030BDF80000ADF8E4
:102C20000000BDF800003880501CADF80000BDF871
:102C30000000ADF80000BDF80000A9F80000ADF8F4
:102C40000040BDF80000ADF80000BDF8000038807D
:102C5000BDE8F8077047ADF80010BDF80000ADF80A
:102C60000000BDF80000A9F80000ADF80050BDF864
:102C70000000ADF80000BDF800003880ADF800C0DD
:102C8000BDF80000ADF80000BDF800003880ADF8D8
:102C90000020BDF80000ADF80000BDF80000A9F864
:102CA000000000E014E0ADF80030BDF80000ADF821
:102CB0000000BDF800003880ADF80040BDF800000D
:102CC000ADF80000BDF800003880BDE8F807704797
:102CD000514E98F806A0BAF1000F368866D0ADF8CC
:102CE0000010BDF80000ADF80000BDF80000A9F824
:102CF0000000ADF80050BDF80000ADF80000BDF8D0
:102D000000003880ADF800C0BDF80000ADF800004C
:102D1000BDF800003880701E010AADF80010BDF843
:102D20000010ADF80010BDF800103980C0B2ADF849
:102D30000000BDF80000ADF80000BDF800003880CC
:102D4000ADF80020BDF80000ADF80000BDF80000AF
:102D5000A9F80000ADF80030BDF80000ADF80000A3
:102D6000BDF800003880ADF80040BDF80000ADF8B7
:102D70000000BDF800003880B8F80200401E010ACB
:102D8000ADF80010BDF80010ADF80010BDF800104F
:102D90003980C0B2ADF80000BDF80000ADF8000009
:102DA000BDF800003880BDE8F8077047301AADF86C
:102DB0000010401E80B2BDF80010ADF80010BDF844
:102DC0000010A9F800100021ADF80010BDF800C0F7
:102DD000ADF800C0BDF800C0A7F800C0ADF8001005
:102DE000BDF80010ADF80010BDF800103980010AE0
:102DF000ADF80010BDF80010ADF80010BDF80010DF
:102E00003980C0B2ADF80000BDF80000ADF8000098
:102E1000BDF80000388093E74C080220FEFF0760F1
:102E20002DE9F04F85B01E460D46824613F007008F
:102E30008946DDF838B018BF012000EBD6004FF00E
:102E40000007710810FB01F010F0FF010091A2F1E2
:102E50002000C0B204BF05B0BDE8F08F00EB400118
:102E6000334A02EB8101049102F2744101EB00113B
:102E7000039100EBC00102F6642202EB8101029192
:102E800002F65C5101EBC01001900C2E08BF0498B3
:102E90000DD0102E08BF039809D0182E08BF029835
:102EA00005D0202E0EBF019805B0BDE8F08FC45D9F
:102EB0004FF0000814F0800F06D01E482946026823
:102EC0005046FFF7EBFA08E0BBF1000F05D11948B7
:102ED000294642685046FFF7E1FA6006040E681C76
:102EE00085B215484088A8429CBF05B0BDE8F08F68
:102EF000A5EB0900B0420CD10AF101004D461FFAC2
:102F000080FA0D48008850459CBF05B0BDE8F08FA1
:102F100006E008F1010000F0FF08B8F1080FC9D37E
:102F2000781CC7B20098B842AFD805B0BDE8F08FA2
:102F3000585D0008A40002204C0802202DE9FF4F34
:102F40004FF0000792461D00804681B03C4604BF0A
:102F500005B0BDE8F08FA5F101094FF0000B0E9808
:102F60004608281B401E0A230121C2B2501EC0B2CF
:102F700004D301FB03F1401EC0B2FAD2BAFBF1F058
:102F80001649A1FB0021C908494201EB810100EB70
:102F900041002FB94C4503DA002818BF012711D092
:102FA00030300E9BC2B2029906FB0480CDF800B00F
:102FB00080B2FFF735FF601CC4B2AC42D1D305B07C
:102FC000BDE8F08F06FB04800E9B202280B20299A0
:102FD000CDF800B0FFF724FFEDE70000CDCCCCCC5E
:102FE0002DE9F84F00F0FF08044610190E46DDE900
:102FF0000A751FFA80FA98191FFA80F92878203884
:103000005E2894BF4FF0000BBDE8F88FA24502D8B0
:10301000F019444686B2B14598BFBDE8F88FCDF8A7
:1030200000B03B462A7831462046FFF7F9FE04EB14
:10303000570084B215F8010F20385E28E6D9BDE8A4
:10304000F88F00002DE9FF4F81B04FF000091F00FD
:1030500080464C46DDF83CA004BF05B0BDE8F08FCB
:10306000A7F1010B0E980AF001054608381B401E17
:103070000A230121C2B2501EC0B204D301FB03F1E6
:10308000401EC0B2FAD20398B0FBF1F01A49A1FB7E
:103090000021C9084942B9F1000F01EB810100EBA1
:1030A000410006D15C4504DA002818BF4FF0010941
:1030B00010D030300E9BC2B2029906FB04800095FE
:1030C00080B2FFF7ADFE601CC4B2BC42CED305B0E7
:1030D000BDE8F08F06FB04800E9B1AF0800F80B2D3
:1030E000009504D002993022FFF79AFEEBE702998F
:1030F0002022FFF795FEE6E7CDCCCCCC104810B5EA
:1031000086B0016841F002010160006801210D4CA8
:1031100000F0020005900320CDE90001CDE9021086
:1031200069462046FEF716F8012220461146FEF7B2
:1031300029F9012220460221FEF724F906B010BD2C
:10314000303802400004024008B500900548018B69
:10315000C08A491E8BB2401E82B20021084600F090
:1031600039F808BD04090220084B00281A46587592
:103170009188128889B292B202BFD9821A837047AD
:10318000012804BFDA821983704700000409022075
:10319000F0B40E4E94B20E4F3246757DD2F81CC07C
:1031A0001368002D127D57F822201CBF03FB01007D
:1031B0000CFB00F006D17568281A401E03FB0010B6
:1031C00000FB0CF01452F0BC704700000409022010
:1031D000AC0002202DE9F003284F4FF0000C069EB2
:1031E0007C7D002C18BF044606D17D680C46A91AC8
:1031F0001A46281A431E491E3868121B97F8148075
:10320000DFF87C90851A00FB0140FF696D1E59F8BC
:103210002880ADB207FB00841A48076847F400070E
:10322000076019484FF44037076002274763056479
:10323000056825F001050560C463591AFB03491CA4
:1032400003EB0242114341648663016841F00101CE
:103250000160416811F0020F08D10CF1010CBCF5BE
:10326000001F03D2416811F0020FF6D0816841F0CF
:1032700002018160BDE8F0037047000004090220EC
:10328000AC0002203038024000B002400B4B8422D8
:1032900002EBC0120129186804BF815841F00101F6
:1032A00005D0002904BF815821F0010100D18150CF
:1032B0001868416A41F00101416270475C080220D0
:1032C00070B51D46064603460548049CFEF794F873
:1032D0003346224629460248BDE87040FEF7B8B89A
:1032E0005C08022070B40D4C0D4D2246667DD2F86C
:1032F0001CC01368002E127D55F822201CBF03FB52
:1033000001000CFB00F006D16468201A401E03FB8C
:10331000001000FB0CF0105A70BC7047040902202A
:10332000AC00022001490875704700000409022022
:10333000F0B4D0F800C08B88DCF80C40C4F30B4428
:1033400023441C04882303EBC2135CF8035005F4E8
:1033500070454CF80350D0F800C00D68DCF80C60E4
:10336000C6F30B46761C35442C434CF80340D0F88A
:1033700000C08B89DCF80C40C4F30A0423441C040D
:103380008C2303EBC2135CF8035005F470454CF832
:103390000350D0F800C08D68DCF80C60C6F30A0654
:1033A000761C35442C434CF80340D0F800C09423DD
:1033B00003EBC2135CF8034024F007044CF803400D
:1033C0000468D1F810C044F803C091F83130D0F847
:1033D00000C01F0291F832301E040B7E1D069C2394
:1033E00003EBC2135CF8034000244CF8034091F84F
:1033F00030C035434CEA070C4CEA050C056845F82B
:1034000003C0D0F800C0982303EBC2135CF803504C
:1034100025F0FF054CF803500568D1F814C045F8B5
:1034200003C0D0F800C0A02303EBC2135CF8035024
:1034300025F0070525F4E0654CF80350D1E907C5F0
:103440004CEA050C056845F803C0D0F800C0AC2371
:1034500003EBC2135CF803504CF803400468D1F846
:1034600024C044F803C00B69002B08BF04230CD010
:10347000012B08BF032308D0042B18BF022B37D021
:10348000032B1CBF072B012332D004684FF0B00C74
:103490000CEBC21C54F80C5005F0E02544F80C501D
:1034A000D1E90054641B0D8D04FB03F405FB03F309
:1034B000E41C44EA0343046844F80C30D0F800C02C
:1034C000B42303EBC2135CF803406FF30A044CF817
:1034D0000340D0F800C0C96A4CF80310006884218A
:1034E00001EBC211425842F001024250F0BC704759
:1034F0000223CAE707490128096804BF886940F028
:10350000010005D0002806BF886920F0010070473F
:10351000886170475C080220704770477047000060
:10352000DFF894C010B594B0DCF8004044F080544B
:10353000CCF80040DCF800C00CF0805CCDF848C04E
:10354000DFF878C0DCF8004044F44044CCF8004098
:10355000DCF800C002240CF4404CCDF848C04FF019
:10356000010CCDF800C04FF4803CCDF804C04FF4FE
:10357000800CCDE90810CDE90A23CDE9064C684658
:10358000FEF75EF900B1FEE7FDF7DEFF00B1FEE7F2
:103590000F20CDE90D0400200F904FF4A0501090A3
:1035A0004FF48050119007210DA8FEF70BF800286A
:1035B00004BF14B010BDFEE7403802400070004068
:1035C000FDF7ECBE0F48016841F4700101600E4840
:1035D000016841F0010101600C4A0021116002689C
:1035E00022F4102222F080720260031D084A1A6041
:1035F000026822F4802202600648016058060649EB
:103600000860704788ED00E000380240083802404A
:10361000103000240C38024008ED00E010B50A4CD0
:103620002068C06810F0010F09D008480069804781
:1036300021680020486264202168C862E0606FF061
:1036400001002168086110BDA40902209001022038
:10365000F0B402682A4BDFF8ACC02B4D98422B4ED9
:103660002B4C18BFB0F1804F07D0604518BFA8425F
:1036700003D0B04218BFA04203D14F6822F07002BD
:103680003A43984218BFB0F1804F25D0604518BF2B
:10369000A84221D0B04218BFA0421DD0A0F1804C5A
:1036A000BCF5A03C1CBFA0F1804CBCF5A23C13D0E3
:1036B000A0F1804CBCF5A43C1CBFA0F1804CBCF533
:1036C000C05C09D0A0F1804CBCF5E05C1CBFA0F14F
:1036D000804CBCF5005C05D1D1F80CC022F44072DE
:1036E0004CEA020202608A68C2620A6882629842F8
:1036F00012BFA0420969016301214161F0BC70471A
:10370000000001400004004000080040000C0040A0
:103710000004014090F8241011F0010F06D0016858
:103720004A68836A22F400321A434A6090F82410EF
:1037300011F0020F06D001684A68C36A22F4803291
:103740001A434A6090F8241011F0040F06D0016863
:103750004A68036B22F480221A434A6090F82410CE
:1037600011F0080F06D001684A68436B22F400424A
:103770001A434A6090F8241011F0100F06D0016827
:103780008A68836B22F480521A438A6090F824106E
:1037900011F0200F06D001688A68C36B22F4005232
:1037A0001A438A6090F8241011F0400F11D001687C
:1037B0004A68036C22F480121A434A60016CB1F526
:1037C000801F06D101684A68436C22F4C0021A4384
:1037D0004A6090F8241011F0800F08BF704701680C
:1037E0004A68806C22F40022104348607047F8B5A4
:1037F00000260446C666FDF7CBFD07462068006834
:103800006FF07E4510F0080F08D000223B464FF4C1
:1038100000112046009500F0B7F968B920680068EB
:1038200010F0040F0AD000223B464FF480012046DE
:10383000009500F0A9F908B10320F8BD202084F814
:10384000690084F86A00002084F86860F8BD10B54B
:10385000806B0021A0F85A10A0F85210FEF71AFA57
:1038600010BD10B5B0F85C2090F86A300168222BCA
:1038700005D0886940F008008861022010BD836887
:10388000B3F5805F04BF0369002B20D0496A0A406A
:10389000416D4B1C43650A70B0F85A10491E09046B
:1038A000090CA0F85A101CBF002010BD01680A685E
:1038B00022F490720A6001688A6822F001028A602C
:1038C000202180F86A10FEF7C1FB002010BD436D77
:1038D000496A11401980416D891C4165DCE700008F
:1038E00070B5044680681021002223691546D4F87B
:1038F0001CC01843636943EA0C0303432068D0F8F3
:1039000000C09D4E0CEA060C4CEA030303602068DD
:103910004368D4F80CC023F4405343EA0C034360DB
:10392000236AA06903432068D0F808C02CF4306CE7
:103930004CEA030383602068904BA0F1804CBCF5F7
:10394000883C23D0A0F1804CBCF5884C29D0A0F154
:10395000804CBCF5904C2FD0A0F1804CBCF5984C1D
:1039600035D0A0F1804CBCF5A04C3BD0A0F1804CF0
:10397000BCF58A3C44D0A0F1804CBCF5F04C4FD053
:10398000A0F1804CBCF5F84C58D06CE01B6813F0EB
:10399000030343D0012B63D0022B5FD0032B61D0F4
:1039A00061E01B6813F00C0356D0042B58D0082B91
:1039B00054D00C2B56D056E01B6813F030034BD07C
:1039C000102B4DD0202B49D0302B4BD04BE01B6817
:1039D00013F0C00340D0402B42D0802B3ED0C02BF0
:1039E00040D040E01B6813F4407335D0B3F5807FBE
:1039F00036D0B3F5007F31D0B3F5407F32D032E01E
:103A00001B6813F4406309D0B3F5806F28D0B3F579
:103A1000006F23D0B3F5406F24D024E0012122E0D1
:103A20001B6813F4405317D0B3F5805F18D0B3F57B
:103A3000005F13D0B3F5405F14D014E01B6813F49B
:103A4000404309D0B3F5804F0AD0B3F5004F05D0FD
:103A5000B3F5404F06D006E0002104E0022102E069
:103A6000042100E00821E369B3F5004F08D00929DB
:103A70007FD2DFE801F046525E7E677E7E7E740074
:103A8000092935D2DFE801F0050F19342134343427
:103A90002B00FDF759FE4100606801EB5001B1FBBE
:103AA000F0F082B225E0FDF767FE4100606801EBAF
:103AB0005001B1FBF0F082B21BE06068304901EBCD
:103AC0005001B1FBF0F082B213E0FDF76DFE410052
:103AD000606801EB5001B1FBF0F082B209E0606870
:103AE0004FF4803101EB5001B1FBF0F082B200E005
:103AF000012522F00F00C2F3420108432168C8608B
:103B000038E0FDF721FE0146606801EB5001B1FB92
:103B1000F0F0216880B2C8602CE0FDF72DFE014670
:103B2000606801EB5001B1FBF0F0216880B2C86021
:103B300020E06168134A02EB5102B2FBF1F189B255
:103B4000C16017E0FDF730FE0146606801EB5001EF
:103B5000B1FBF0F0216880B2C8600BE009E0616859
:103B60004FF4004202EB5102B2FBF1F189B2C160A5
:103B700000E00125284670BDF369FFEF9038024050
:103B80000048E8010024F4002DE9F04104460068F3
:103B90001E461746069D8846C06931EA00000CBFE4
:103BA00001200020B84226D1B5F1FF3F1AD025B13F
:103BB000FDF7EEFB801BA84214D32068016821F4B6
:103BC000D07101602068816821F0010181602020AE
:103BD00084F8690084F86A00002084F868000320F3
:103BE000BDE8F0812068C06938EA00000CBF012000
:103BF0000020B842D8D00020BDE8F0811A4838B57E
:103C00000068C06910F0200F28D0174801224FF437
:103C10007A736946FEF7A2F9144A108810F4004F2F
:103C20001CD19DF8001010F4804F4FF0000305D018
:103C30000A2908BF40F4004014D00EE00D2908BF47
:103C400040F480400ED00A4CC0F30D0C401C80B2F2
:103C5000C72804F80C10108000D913800248FEF722
:103C60001BF838BD1080F9E7900702209C00022065
:103C7000C8060220FEE70021016081807047002114
:103C8000016081808171704730380A2801D201209B
:103C9000704700207047704770472DE9FF4F8BB089
:103CA00014460028DDF860A018BFBAF1000F07D055
:103CB000621E0492402A03D2012C06D10E9A22B130
:103CC0000FB06FF00100BDE8F08F00220292039266
:103CD000CDE9050402A807900598808AB1EBC00FD2
:103CE00028BF00257CD20B19B3EBC00F83BFC1EBFB
:103CF000C000C0B206902046002800F03C81059824
:103D0000C06818B90598006900287DD0069E302942
:103D10000D464FF0000811D2C5F13000864238BF81
:103D2000304600F0FF08009205984246079B8068E5
:103D300000F0FDFAA6EB08004544C6B205986FF006
:103D40002F013027808A01EBC00B0598C06831E055
:103D5000BBF1000F00F00F81BBF1E00F94BF58469C
:103D6000E02000EB0709A9451AD9A9EB0500B042EC
:103D700088BF3046C0B20890BD42C0F0FC80024609
:103D80000998079BE91B001DCDF8008000F0CFFAD1
:103D900008980544404400F0FF080898301AC6B25D
:103DA000B94540F2E880A9EB07004F46ABEB000BAA
:103DB000099800680990002818BF002EC8D15E45F8
:103DC00000F2D98005980069002818BF002E11D094
:103DD000BD4275D3079BE91B3246CDF8008001E058
:103DE0001AE011E000F0A3FA08EB060035440026C3
:103DF00000F0FF080598808AB5EBC00F9CBFB8F1B2
:103E0000400F002E5CD106E0009205988068DDE945
:103E1000062300F08CFA069D002D7DDD681E3F28EC
:103E20004ED8A5424CDC14F0070F09D002A800EBD5
:103E3000D400C4F1080202F007020178D1400170F9
:103E4000012C18BF082C98BF4FF0010C0ED9102C74
:103E500098BF4FF0020C09D9202C98BF4FF0040CEA
:103E600004D9402C98BF4FF0080C29D8ACF10100C0
:103E7000072825D80120000A0CD00022BCF101013E
:103E800002AB07D0985C5E5C9E545854491E521C8D
:103E90009142F7D80E98F0B3B4EBCC0F42D0611E2C
:103EA000012000FA01F1A040401EC043082C08D8B0
:103EB0009DF808200A421CBF10438DF808003EE020
:103EC00059E0102C07D8BDF808200A421CBF104347
:103ED000ADF808003AE0202C05D8029A0A421CBF2F
:103EE0001043029039E0402C45D2029E012000216F
:103EF000DDE90372FCF721FA30403940084332D043
:103F0000012022460021FCF718FA421E41F1FF3041
:103F100066EA020101E00EE02FE067EA0000CDE969
:103F2000021020E0082C0AD9102C0FD9202C14D90B
:103F3000402C18D91FE0012C18BF082C04D89DF87C
:103F400008008AF8000012E0102C04D8BDF8080020
:103F5000AAF800000BE0202C03D80298CAF8000051
:103F600005E0402C07D8DDE90201CAE90001AC42B6
:103F7000A8BF002D01DCFCF78FFB0FB02846BDE881
:103F8000F08F70B5002884B018BF002B11D0402AE4
:103F90000FD872B14FF0000CCDF808C0012ACDF84F
:103FA0000CC008D0082A0ED81B7801258DF80830DF
:103FB0000FE0FCF771FB1B780125002B18BF0123D4
:103FC0008DF8083005E0102A2ED81B880225ADF8A0
:103FD000083001231B0A0FD06B1E4FF0000C02ACFF
:103FE0000AD014F80C50E65C04F80C60E5545B1E33
:103FF0000CF1010C6345F4D812F0070F0CD002ABA2
:1040000003EBD203C2F1080404F0070493F800C0E4
:104010000CFA04FC83F800C0034602A800910021BA
:1040200000F085F904B070BD202A9DBF04251B68EF
:104030000293082584BFD3E900C3CDE902C3C8E7D2
:1040400070B5DDE9045478B34FF0000CC0F800C03F
:10405000C0F80CC0C0F810C0C0F814C0C0F818C038
:10406000C0F81CC080F800C00462C0E901535309C5
:10407000B3F5803F28BF4FF6FF7300F10C044FF0FB
:1040800000001D0422462D0C06D001EB40131360E6
:10409000401C1A468542F8D8C2F800C0A580A4F892
:1040A00006C0A4F808C070BDFFE7FCF7F5FA2DE9DB
:1040B000F04383B0804694468946DDE90B40DDE954
:1040C0000E650D9F0A9A06B90DB91F2804D903B0D1
:1040D0006FF00100BDE8F08398F80010002902BFDE
:1040E0006FF0030003B0BDE8F083000640EA024031
:1040F00040EAC73040EA0920084340F080094FF603
:10410000FF70072D06D9624600F070F92A46314645
:1041100000F050F9CDE90065034622464946404685
:1041200000F084FA012F1CBF03B0BDE8F08354B146
:104130002178491CC9B22170202924BF0021217097
:1041400003B0BDE8F083FCF7A7FA000000291CBF0C
:104150000129022913D100281CBF0288002A0ED091
:10416000B2F5806F0BD802794AB1042A07D8827859
:104170002AB1102A03D8C2780AB1082A02D96FF0EE
:1041800001007047554A0023022913605360936071
:10419000D36014BF002201222DE9F041DFF840C1B5
:1041A0008CF800204F4A13604F4C226822F0020224
:1041B0002260226842F00102226001260022E513FB
:1041C000D4F804C00CF0010CB4450DD1474F3B604E
:1041D000474C226822F002022260226842F001026B
:1041E00022600126002205E0521C92B2B2F57A7FCD
:1041F000E6D330E0D4F804C00CF0010CB44525D16E
:1042000061222260027990F802C0521EACF1010CCA
:1042100092070CF00F0C920942EA0C4290F803C08E
:104220000088ACF1010C401E0CF0070CC0F3090033
:1042300042EA0C520243012914BF00204FF0004013
:1042400010432C490860386850B124E0521C92B2E7
:10425000B2F57A7FCED325606FF47A70BDE8F08135
:10426000206820F00100206000221046616801F003
:104270000101914211D12049086820F4877020F48F
:10428000785040F4606040F0010008600868C0F3B6
:1042900005200E280AD0FCF7FFF9401C80B2B0F5CB
:1042A0007A7FE3D325601548BDE8F08114480360A8
:1042B0006FF07040134A1060144A1348106014489D
:1042C0000360001D03600014124A1060086820F0AB
:1042D000010008600020BDE8F0810000B80602205F
:1042E0009000022014640040006400401468004004
:1042F000006800401C6800400066004016FCFFFF9C
:10430000046600400C660040AAAAAA0A146600408F
:10431000B06600401C66004010B530B1027822B98A
:1043200019B17F299CBF017010BDFCF7B5F92DE9CB
:10433000F047002ADDF820C03AD000EBD10601F0AA
:104340000700841803EBDC0784420CF0070314BF5A
:104350004FF47F48BDE8F08700F0070C03F0070139
:104360008C458CBF65460D46221AC5F10805AA4248
:1043700028BF2A4628FA02F506EBD009EDB2104410
:1043800099F80090CD4009FA0CFC2CFA01FC07EBDF
:10439000D3010CEA050C844291F80090134429EAF9
:1043A000050949EA0C0C81F800C0D5D1BDE8F087B9
:1043B000FCF772F9531E30B427BF41F221044FF6C7
:1043C000FF7C30BC704711F8012B80EA02200022EC
:1043D00010F4004F0CEA400018BF6040521CD2B2EB
:1043E000082AF5D35B1EEED230BC70472DE9F047AA
:1043F000002415461E4641F221084FF6FF778146FC
:10440000224628463146FBF7ABFFC1B2002289EABB
:10441000012010F4004F07EA400018BF80EA0800AE
:10442000511CCAB2082AF4D304F108018CB2402C02
:10443000E5D3BDE8F08701680022002908BF1146D6
:104440000AD00B680360C3885B1C9BB2C380B0F8C2
:1044500008C09C4538BF0381002904BF0020704775
:104460000A604A6008468A60CA600A6170470000B4
:1044700010B504460420FDF7C5FB0148046010BDDB
:1044800098000220F0B4002400289CBFF0BC7047C4
:104490000E494FF47A724FF0E026096801FB02F5ED
:1044A000D6F814C00021B369B2699A42FCD026BF85
:1044B000ACEB02073B449B1A19441346A942F3D3C1
:1044C000641C8442ECD3F0BC7047000098000220CA
:1044D00030B44FF0E02400216369094A126800FB00
:1044E00002FCA269A0699042FCD026BF1D1A2A4492
:1044F000121A114402466145F4D330BC70470000E3
:104500009800022070B582B04FF0000604000D46FE
:1045100031464FF001008DF804608DF800005BD04B
:104520000522284601ABFFF72CFD05216B4603222F
:104530002846FFF726FD08212846402204F10803FB
:10454000FFF71FFD48212846052201ABFFF719FDA3
:104550004D216B4603222846FFF713FD50212846C4
:10456000402204F12003FFF70CFD9021284606228B
:1045700001ABFFF706FD96216B4602222846FFF7A6
:1045800000FD98212846402204F11803FFF7F9FCAA
:10459000D8212846062201ABFFF7F3FCDE216B464B
:1045A00002222846FFF7EDFCE0212846402204F1D4
:1045B0001003FFF7E6FC2068FCF779F805F1240307
:1045C000216802461846FCF7DCF82068FCF76FF813
:1045D00002B0243080B270BD0522314601AB2846BE
:1045E0008DF80060FFF7CDFC05216B4603222846BD
:1045F000FFF7C7FC08212846062201ABFFF7C1FCE4
:104600000E216B4602222846FFF7BBFC10212846EC
:10461000062201ABFFF7B5FC16216B4602222846A5
:10462000FFF7AFFCEE7002B0042070BD2DE9F04F33
:1046300083B091465FEA000ADDE90C8502D011F0F3
:10464000604F01D0FCF728F8B9F1000F26D015B162
:10465000B8F1000F22D00027082D41F0004B22D2E4
:104660000AF10C00FFF7E7FE04003ED004F1080059
:104670002A464146FCF785F8681C207499F800002A
:10468000611900F01F0040F0C0000872214650463A
:10469000C4F804B000F020FA012759E003B06FF02D
:1046A0000100BDE8F08F002480222646D8B2019098
:1046B000180A0090DAF80C100AF10C0051B10B68DE
:1046C0000360C3885B1C9BB2C380B0F808C09C45E4
:1046D00038BF038129B10020086048608860C86045
:1046E000086111B100202CB116E003B06FF0020098
:1046F000BDE8F08F019808720098487202200BE024
:1047000001EB000C18F80430401CC0B28CF80830E3
:10471000631C9CB2072801D2AC42F1D3AC4208BF63
:10472000402242EA461299F8003003F01F031A4370
:104730000B18401C1A72C1F804B00874504600F0FF
:10474000CBF9781C002207B2A54286F00106B1D150
:1047500003B03846BDE8F08F0349CA6912F0400F34
:10476000FBD0C2B28A6270470010014070B5E6B05B
:1047700004464FF4BE7106A8FCF76AF806AD40F295
:1047800079112846FCF742F8284600F053F96320D7
:104790008DF820008DF81F00012616482022502198
:1047A0006B468DF8216000902846FFF7EAFB002158
:1047B00005F11802481C5154C1B21029FAD30E4910
:1047C0000F2205F12900FBF7DCFF0DF1080CA07E9C
:1047D0003823002106AA8CE80F0004F11900074ACB
:1047E000074BCDE90060E17E0648FFF760FC66B04C
:1047F00070BD0000FE0FDCBA244A00089E6AC42186
:10480000818A46EE900202202DE9F0439FB00746D0
:1048100000244FF6FF700D222146ADF874001DA84C
:10482000CDE91A4423468DF8704000903846FFF7D2
:1048300034FA1CA800900D21384600230322FFF70C
:104840002CFA9DF870001026012808D11AA83146CC
:104850000023009040223846FFF71FFA5026B88AFE
:1048600000251694F1171794189406EB51711994BA
:10487000A0EBE1001FFA80F8B8F1000FC8BF0DF1FE
:1048800058090CDD09EB0500314600230090082291
:104890003846FFF702FA6D1C0836A845F2DC16A868
:1048A000FBF705FFDFF8AC8000281CBF0DF15809AD
:1048B000002545D005EB850658F83600FBF7F7FED6
:1048C00058F8361002464846FBF710FF20B1681C26
:1048D00085B2032DEED33AE005EB850008EBC0006E
:1048E00038B19DF87010012904BFDDE91A12C0E942
:1048F0000212069406A90794089409940A940B944A
:104900000C940D940E940F9410941194129413948B
:1049100014941594FFF7F6FDB97E06AACDE904209C
:1049200007F119000C4ACDE902140B210B4BCDE91C
:104930000010F97E0A48FFF7BAFB1FB0BDE8F0830C
:10494000BDF87400032838BF00EB8000C6D30020F8
:10495000C6E7000018000220D5A4D139F922B6A775
:1049600090020220194884B00024D0E90010CDE95B
:104970000210FCF747F9FCF719FD0923022219215F
:104980004FF4D870FEF7CCFDD820FFF771FD4FF43F
:10499000E13000F015F90E4841686C208847FEF7B9
:1049A000ADFB4FF42022002000900623D100FCF73D
:1049B000BDF800F017F9082102A8FCF7F9F80A2061
:1049C000FFF760FD142C08BF0024F4E7385D0008F1
:1049D0009001022038B5044640F27911FBF716FF2A
:1049E000204600F027F86320E071207201206072F9
:1049F00020220B4850216B4600902046FFF7C1FA59
:104A0000002104F118004154491CC9B21029FAD3FD
:104A10000F2204A104F12900FBF7B3FE382038BDB2
:104A2000FE0FDCBA736B7979752E6E6F64652E6438
:104A3000656D6F0010B584B0044600208DF800004D
:104A40008DF804002046FFF71AF9FCF7A1FC4FF49B
:104A50007A7190FBF1F02022002102AB02902046F7
:104A6000FFF78FFA02226B4620212046FFF789FAD2
:104A700003222046222101ABFFF783FA04B010BDC8
:104A8000F8B5087E0D46012801BFE88A01280846CE
:104A9000FFF76CFEE88AA0F58061063911D10D4F51
:104AA000002634462846012307EB440100910E22DC
:104AB0003146FFF7F2F80E2803DB641C0E36062C95
:104AC000F0DBE88A0B2818BFF8BD2846BDE8F8409F
:104AD000FFF79ABE840202202DE9F04700281CBF90
:104AE0000A7C002A1ED0D0F81C80B8F1000F04BF49
:104AF000C161BDE8F08742464F689146FE0F556898
:104B000027F0604C25F06043EC0FA6420CD0002E3D
:104B100018BF4FEA9C4C002C18BF9B0C9C4510D032
:104B20000ED20BE0FBF7B8FD9C45C7F3807AC5F3C6
:104B3000807401D1A24504D19C4501D2012400E03A
:104B4000002444B1904518BFC9F800100A6008BF9E
:104B5000C161BDE8F0871368002B1CBF91461A465F
:104B6000CDD11160BDE8F08700687047012B08BF08
:104B7000012A13D0A2F58060063809D00B2A1CBF89
:104B8000002070470848094AC1E900020120704727
:104B9000084A0748C1E9000201207047074A064851
:104BA000C1E9000201207047D5A4D139F922B6A786
:104BB0001D95ECD7875C7F219E6AC421818A46EED1
:104BC0000749064AC1E9002000208860C8600861E2
:104BD00088610C2048610846FDF740B9001001408B
:104BE000900702202DE9F04385B0FCF7ADFD02AC43
:104BF0003E4D06462046FFF73EF8B6FBF5F0112283
:104C000010210027B0FBF2F302FB1302384B5AB11C
:104C100001E002294DD9491EC9B24A1CB0FBF2FC81
:104C200002FB1C02002AF4D14A1CB0FBF2F0421E27
:104C3000B2F5806F3DD2C1EBC10C0CF10302C2F39F
:104C4000C7028B1A9142DBB24DD902F101084FF431
:104C50007A7918FB09F802EB030909F10109B8FB9D
:104C6000F9F81FFA88F8B8F5617F08D9ACF10102AC
:104C7000D31702EB5372C2F3C702891ACBB2511E8B
:104C80000F2904D81BB1082B98BF012100D900219E
:104C900002EB030C0CF1010C0CFB00FCB6FBFCFC62
:104CA000AC4520D1F9B1208001202071A270E370C1
:104CB0003B4603B101BE002102A8FFF747FA00B14D
:104CC00001BE0C484FF480620C49CDE900070A4B45
:104CD000A1F12400FFF7B4F909480A21FFF71CFBF2
:104CE00005B0BDE8F083FBF7D7FC000020A107006A
:104CF00018FCFFFF6D4B0008814A0008B402022037
:104D00009002022070B594B0064613AB694611AA12
:104D100000F026FA00281CBF14B070BD0020244CFF
:104D20008DF84000207D002888BF04251CD99DF8FF
:104D3000401013AB206812AA05EBC101405808A926
:104D400000F00EFA00281CBF14B070BD694608A818
:104D500000F090FCF0B19DF84000401CC0B28DF80E
:104D60004000217D8142E2D8207D9DF8401088429C
:104D700002BF042014B070BD10A9304600F0C8FA7C
:104D800000281CBF14B070BD9DF84000607514B0C1
:104D9000002070BD9DF848009DF8441088428EBFE9
:104DA00002209DF84000A075DED914B070BD00004F
:104DB000900102202DE9F043924F9BB0BD7D387DDC
:104DC000A8429CBF1BB0BDE8F083042119AB01EBE6
:104DD000C501386818AA405810A900F0C1F910A9F7
:104DE00089A0FBF7D1FA9DF860000024002884BF59
:104DF0004FF001090DF1180839D9388B09FA04F17F
:104E0000084218D0222182A0FBF7BEFA204600F00B
:104E100015FB384400F124017EA0FBF7B5FA2221EE
:104E20007BA0FBF7B1FA204600F008FB38442430A1
:104E300048F824000DE0204600F000FB3844416AA9
:104E400048F82410F87D002814BF73A074A0FBF765
:104E50009BFA9DF86000401E84421CBF71A0FBF7C6
:104E600093FA601CC4B29DF860008442C5D36EA062
:104E7000FBF78AFA6D486FF0010102681161090CB5
:104E80000268D162C160002100684162C7F8F01079
:104E9000787D0B287DD2DFE800F0060B1118202862
:104EA000323E4C596A00386850F8350080475CE063
:104EB000386850F835100698884756E0386850F83A
:104EC0003520DDE9060190474FE03868089A50F830
:104ED0003530DDE90601984747E0386806AC50F800
:104EE00035C094E80F00E0473FE00A9806AC009018
:104EF000386850F835C094E80F00E04735E0DDE948
:104F00000A0106ACCDE90001386850F835C094E8D4
:104F10000F00E04729E0DDE90A010C9A06AC029295
:104F2000CDE90001386850F835C094E80F00E0473B
:104F30001BE00AAC94E80F0006AC8DE80F0038685F
:104F400050F835C094E80F00E0470EE00BAC94E851
:104F50000F0001AC84E80F000A9806AC0090386896
:104F600050F835C094E80F00E047064611E00CAC5D
:104F700094E80F0002AC84E80F00DDE90A0106ACFA
:104F8000CDE90001386850F835C094E80F00E047DB
:104F9000064626480068016911F0010FD7F8F010A5
:104FA00004D04FF6FF721144C7F8F010406A08446D
:104FB000C7F8F0009DF8640001281AD01CA0FBF788
:104FC000E3F997F8EC00002804BF1BB0BDE8F083BC
:104FD0001849D7F8F000A1FB0021C9084A4202EBAA
:104FE000820200EB420214A0FBF7CEF91BB0BDE831
:104FF000F083F87D3146002814BF17A019A0FBF7F5
:10500000C3F9DEE7900102200D0A25732800000095
:10501000256300002573000030582558000000006B
:10502000256C64002C00000029000000A409022067
:105030003B0D0A00CDCCCCCC46756E6374696F6EA7
:105040002052756E2054696D653A25642E253164B1
:105050006D730D0A000000003D305825583B0D0AC5
:10506000000000003D256C753B0D0A00F0B40024E3
:1050700025462646A44603782C2B06D0292B14BFA0
:10508000002BBCF1000F33D003E0BCF1000F08BFD0
:1050900001252EB1222B08BF4FF0000C45BB2DE09F
:1050A000A3F13007092F17D92D2B18BF2B2B13D0A5
:1050B000A3F16107052F84BFA3F14107052F0BD989
:1050C000582B18BF782B07D0222B0CD0202B18BFC1
:1050D0002C2B1ED0FF260BE055B9612B28BF203B9F
:1050E00001F8013B15E0002D04BF0126B44610D0A5
:1050F0000020087020461670F0BC7047BCF1000F0D
:1051000007D05C2B02D1631C401CDCB2037801F891
:10511000013B631C401CDCB2ADE74DF8044D00249C
:10512000147010E001F801CB92F800C0401C0CF1A3
:10513000010C0CF0FF0C82F800C09C4503D35DF815
:10514000044B0120704790F800C0BCF1200F18BF3D
:10515000BCF1000FE6D10C7000205DF8044B7047E5
:105160002DE9FF4F4FF0000C04780125E34682B093
:10517000E146002C674662460646EE46E24633D0DC
:10518000E4B2202C1CBF02F07F08B8F1050F0ED24C
:10519000002A08BF802202F07F08B8F1040F01D175
:1051A0002A2C0AD1521C0EF80840D2B201E0852AFE
:1051B00004D016F8014F002CE2D1AAB102F07F0210
:1051C00074460EF802A050A2267892F80080464558
:1051D00002D001221A7006E0002E1CBF521C641C73
:1051E000F2D183F800A000220026044617E0731CC9
:1051F000DEB214F8013F202B14BF2A2B631C0ED102
:1052000093F80080B8F1200F03D1002B18BF5B1C6E
:10521000F6D108F0FF03282B1CBF2A2BB3462378B6
:10522000282B18BF002BE2D1BBF1000F80461CBF1A
:10523000584400F1010800207646044698F80030F2
:1052400013B3282B04D0292B09D0222B21D007E01F
:10525000002C04BF0CF1010C0CF0FF0C00E054B169
:10526000BCF1000F1AD02C2B1DD0202B18BF282BDF
:1052700024D00ABB1BE0BCF1000F05D0ACF1010C3F
:105280001CF0FF0C01D0F4E70120B9F1010F22D08E
:1052900032E0002C14BF00240124E1E7202B18BFCA
:1052A00001F8013B14E00125521CD2B206E0052FA3
:1052B00002D2F3557B1CDFB26B1CDDB2BCF1010FD7
:1052C00008BF022D04D109F10103032503F0FF09F2
:1052D00008F10108B2E70CA2334606F807A093F8DC
:1052E00000C01478A44507D1BCF1000F1CBF521CAC
:1052F0005B1CF4D14FF00009049A82F8009081F809
:1053000000A006B0BDE8F08F766F69640000000071
:105310002DE9F043484E0024B5B089462146224687
:105320007318491CC9B20A299A76F9D30178282939
:1053300004D010F8011FB1B12829FAD1451C4FF053
:1053400004080127694633AA2846FFF78FFE054463
:105350009DF8CC0058B1012804BF684600212FD029
:10536000FF280DD05CE035B00120BDE8F0839DF84A
:105370000000002854D034A9684600F0FFF818B1A6
:1053800035B00220BDE8F0830021002C084607D983
:105390003218401CC0B2927E84421144C9B2F7D880
:1053A000881934994162308B07FA04F188433083BD
:1053B000301980F81A80601CC4B20A2C2CD82FE057
:1053C00002781AB1491C401CC9B2F9E7481C6B4667
:1053D000C1B20020002C024609D906EB020C521C77
:1053E000D2B29CF81AC094426044C0B2F5D830449E
:1053F00024301A7802701A78002A1CBF401C5B1CEB
:10540000F7D1308B07FA04F21043308330198176DC
:10541000601CC4B20A2C03D935B00320BDE8F08368
:105420002878292818BF00288CD189F8004035B089
:105430000020BDE8F08300009001022002004FF040
:105440000000014614BF064B704703EB010C491CDA
:10545000C9B29CF81AC08A426044C0B2F5D87047FD
:105460009001022000EBC00101EB00104FF0FF3172
:1054700038B501EB800085B211484FF47A740168A9
:1054800041F00401016000680322114600F00400AD
:1054900000901E20FCF714F81E20FCF704F80A48C0
:1054A0000849C0E900150021C0E902140161FCF7B8
:1054B000CBFB0548FCF7E2FB04490120C87538BD69
:1054C0004038024000080040A40902209001022058
:1054D0002DE9F041184D288810F4004F08BFBDE8B1
:1054E000F081C0B215490026154F0E54B968134813
:1054F0008847040017D0114800F0CAF8012801D0ED
:10550000040015D0012C08BF0EA00FD0022C08BF3C
:105510000FA00BD0032C08BF10A007D0042C08BF8D
:1055200011A003D004E0F868804701E0FAF72CFFEF
:105530002E80BDE8F08100009C000220C8060220F9
:1055400090010220BAAFCAFDB4EDCEF3210D0A00DE
:10555000B2CECAFDB4EDCEF3210D0A00B2CECAFD23
:10556000CCABB6E0210D0A00CEB4D5D2B5BDC6A5F0
:10557000C5E4B5C4BAAFCAFD210D0A002DE9F0019A
:10558000002203460A2614460A6093F800C0ACF1D4
:105590003005092D15D905782D2D17BF2B2D002A83
:1055A000ACF14105052D0CD9BCF1580F06D01CF00B
:1055B000FF0F1BD0BDE8F00101207047012AF9D18F
:1055C00002E0BCF1410F00D3102690F800C0BCF1FE
:1055D0002D0F08BF022406D0BCF12B0F0EBF0124F3
:1055E000521CD2B200D1401C5B1CCEE7102E06D05C
:1055F000002A02BF0420BDE8F001704713E0032A2F
:105600003EBF0220BDE8F00170470378302B07BF92
:105610004378582B0320BDE8F00118BF7047921E55
:10562000801CD2B20AB1521ED2B20378A3F1300C60
:10563000BCF1090F94BFE046A3F137083546531E6D
:105640004FF0010CDBB204D30CFB05FC5B1EDBB29C
:10565000FAD20B6808FB0C330B6010F801CFBCF1D9
:10566000000FDFD1022C04BF584208600020BDE8C3
:10567000F001704702780B789A4201D00120704700
:10568000002A1CBF401C491CF4D1002070470000B8
:10569000F0B58DB004461E23694608AAFFF73DFD0C
:1056A0000028099040F0D7829DF8200027183F4C31
:1056B00000268DF820609DF8200054F820106846E0
:1056C000FFF7D8FF38B19DF82000401CC1B28DF81B
:1056D00020100729EFD39DF820000425344C07281B
:1056E00080F0B982DFE800F00404395A605F5E00A0
:1056F00030A0FAF749FE30A0FAF746FE3EA0FAF7CE
:1057000043FE4DA0FAF740FE5BA0FAF73DFE6AA00B
:10571000FAF73AFE78A0FAF737FE86A0FAF734FED9
:105720008BA0FAF731FE93A0FAF72EFE97A0FAF7B6
:105730002BFE9CA0FAF728FEA1A0FAF725FEA7A051
:10574000FAF722FEB3A0FAF71FFEC0A0FAF71CFE7C
:10575000CBA0FAF719FED7A01DE016A0FAF714FEA9
:10576000E4A0FAF711FE8DF82060207D002811D901
:105770009DF82010206805EBC1014158EDA0FAF713
:1057800003FE9DF82000401CC0B28DF82000217D52
:105790008142EDD807A0FAF7F7FDF8E105A0FAF786
:1057A000F3FDCBE137E215E2F4E10000B4000220A2
:1057B000900102200D0A00002D2D2D2D2D2D2D2DB7
:1057C0002D2D2D2D2D2D2D2D2D2D2D2D2D2D2D2D09
:1057D00055534D4152542056332E332D2D2D2D2D02
:1057E0002D2D2D2D2D2D2D2D2D2D2D2D2D2D2D2DE9
:1057F0002D2D2D200D0A00002020202055534D4135
:105800005254CAC7D3C9414C49454E54454BBFAA0F
:10581000B7A2B5C4D2BBB8F6C1E9C7C9B5C4B4AE66
:10582000BFDAB5F7CAD4BBA5BDBBD7E9BCFE2CCD4A
:10583000A8B9FD200D0A0000CBFC2CC4E3BFC9D2DF
:10584000D4CDA8B9FDB4AEBFDAD6FACAD6B5F7D36F
:10585000C3B3CCD0F2C0EFC3E6B5C4C8CEBACEBA9B
:10586000AFCAFD2CB2A2D6B4D0D02ED2F2B4CB2C7B
:10587000C4E3BFC90D0A0000D2D4CBE6D2E2B8FC23
:10588000B8C4BAAFCAFDB5C4CAE4C8EBB2CECAFD4B
:1058900028D6A7B3D6CAFDD7D62831302F3136BD8A
:1058A000F8D6C62CD6A7B3D6B8BACAFD29A1A2D7B6
:1058B000D6B7FBB4AE0D0A00A1A2BAAFCAFDC8EBC1
:1058C000BFDAB5D8D6B7B5C8D7F7CEAAB2CECAFD1B
:1058D000292CB5A5B8F6BAAFCAFDD7EEB6E0D6A763
:1058E000B3D63130B8F6CAE4C8EBB2CECAFD2CB29A
:1058F000A2D6A7B3D60D0A00BAAFCAFDB7B5BBD8BA
:10590000D6B5CFD4CABE2ED6A7B3D6B2CECAFDCF97
:10591000D4CABEBDF8D6C6C9E8D6C3B9A6C4DC2C65
:10592000D6A7B3D6BDF8D6C6D7AABBBBB9A6C4DC2A
:105930002E0D0A00BCBCCAF5D6A7B3D63A77777746
:105940002E6F70656E6564762E636F6D0D0A0000B4
:1059500055534D415254D3D037B8F6CFB5CDB3C31C
:10596000FCC1EE28B1D8D0EBD0A1D0B4293A0D0AB1
:10597000000000003F3A202020202020BBF1C8A1D9
:10598000B0EFD6FAD0C5CFA20D0A000068656C70E2
:105990003A202020BBF1C8A1B0EFD6FAD0C5CFA2E3
:1059A0000D0A00006C6973743A202020BFC9D3C36C
:1059B000B5C4BAAFCAFDC1D0B1ED0D0A0A000000EE
:1059C00069643A2020202020BFC9D3C3BAAFCAFDE2
:1059D000B5C44944C1D0B1ED0D0A0A006865783AF2
:1059E00020202020B2CECAFD3136BDF8D6C6CFD495
:1059F000CABE2CBAF3B8FABFD5B8F12BCAFDD7D6B8
:105A0000BCB4D6B4D0D0BDF8D6C6D7AABBBB0D0A9D
:105A10000A0000006465633A20202020B2CECAFD4F
:105A20003130BDF8D6C6CFD4CABE2CBAF3B8FABF4F
:105A3000D5B8F12BCAFDD7D6BCB4D6B4D0D0BDF8FA
:105A4000D6C6D7AABBBB0D0A0A00000072756E74D9
:105A5000696D653A312CBFAAC6F4BAAFCAFDD4CB82
:105A6000D0D0BCC6CAB13B302CB9D8B1D5BAAFCAB8
:105A7000FDD4CBD0D0BCC6CAB13B0D0A0A00000091
:105A8000C7EBB0B4D5D5B3CCD0F2B1E0D0B4B8F157
:105A9000CABDCAE4C8EBBAAFCAFDC3FBBCB0B2CE44
:105AA000CAFDB2A2D2D4BBD8B3B5BCFCBDE1CAF822
:105AB0002E0D0A002D2D2D2D2D2D2D2D2D2D2D2D85
:105AC0002D2D2D2D2D2D2D2D2D2D2D2D2D2D414CD3
:105AD00049454E54454B2D2D2D2D2D2D2D2D2D2D44
