:020000040800F2
:10000000300E00202D02000835230008872200084A
:1000100031230008EF0A00089928000800000000BA
:100020000000000000000000000000006123000844
:100030001D0C00080000000037230008B923000849
:10004000470200084702000847020008470200086C
:10005000470200084702000847020008470200085C
:10006000470200084702000847020008470200084C
:10007000470200084702000847020008470200083C
:10008000470200084702000847020008470200082C
:10009000470200084702000847020008470200081C
:1000A000470200084702000847020008470200080C
:1000B0004702000847020008192400084702000808
:1000C00047020008470200084702000847020008EC
:1000D00047020008592800084702000847020008A4
:1000E00047020008470200084702000847020008CC
:1000F00047020008470200084702000847020008BC
:1001000047020008470200084702000847020008AB
:10011000470200084702000847020008470200089B
:10012000470200084702000847020008470200088B
:1001300000F002F800F06BF80AA090E8000C82448E
:100140008344AAF10107DA4501D100F060F8AFF26B
:10015000090EBAE80F0013F0010F18BFFB1A43F0A5
:100160000103184748540000685400000A444FF047
:10017000000C10F8013B13F0070408BF10F8014B06
:100180001D1108BF10F8015B641E05D010F8016B4B
:10019000641E01F8016BF9D113F0080F1EBF10F8AF
:1001A000014BAD1C0C1B09D16D1E58BF01F801CBD2
:1001B000FAD505E014F8016B01F8016B6D1EF9D555
:1001C0009142D6D37047000000230024002500266A
:1001D000103A28BF78C1FBD8520728BF30C148BFAA
:1001E0000B607047642900F0C580752900F0C2805B
:1001F000782900F0FB80632900F0B983732900F0AF
:10020000BE83002070471FB51FBD10B510BD00F0A4
:1002100006FC1146FFF7F7FF03F010FE00F024FC88
:1002200003B4FFF7F2FF03BC02F05BFB0948804711
:1002300009480047FEE7FEE7FEE7FEE7FEE7FEE7C8
:10024000FEE7FEE7FEE7FEE704480549054A064BE0
:1002500070470000C1230008310100083008002069
:10026000300E0020300A0020300A00207047B2F122
:1002700020030AD5C2F1200301FA02F120FA03F3A8
:1002800000FA02F041EA0301704700FA03F14FF06F
:1002900000007047B2F120030AD5C2F1200320FA12
:1002A00002F001FA03F321FA02F140EA0300704779
:1002B00021FA03F04FF00001704700000FB4044929
:1002C00010B503AA029800F05FFB10BC5DF814FBA8
:1002D000AC00002070B5044685690068C10601D5F0
:1002E000302600E02026C00707D070BDD4E90121E8
:1002F00030469047206A401C20626D1EF6D570BDC6
:1003000070B5044685690078C00707D170BDD4E98F
:10031000012120209047206A401C20626D1EF6D5E6
:1003200070BD70B50C460546012A05D028788006B8
:1003300000D5EA69002302E0012305E05B1C93423B
:1003400002D2E05C0028F9D1A869E618C01AA861B9
:10035000286A184428622846FFF7BCFF04E0D5E964
:10036000012114F8010B9047B442F8D32846FFF757
:10037000C7FF70BD2DE9F0410646002410687529BD
:10038000314616A510D0AFF30080002802DA4042B3
:1003900013A507E031688A0701D512A502E04907D5
:1003A00004D511A5012401E0AFF3008000210A2249
:1003B00006F1240709E0B0FBF2FCB0FBF2F302FB0C
:1003C0001C00303078541846491C0028F3D12346CD
:1003D0002A463046BDE8F04100F066BA0000000051
:1003E0002D0000002B0000002000000070B5044626
:1003F0000D4621461068AFF300802188090502D51B
:100400000F4A7A4402E00E4A7A440E32002104F187
:10041000240305E000F00F060009965D5E54491CB8
:100420000028F7D120780023000704D5702D02D0D2
:1004300009B1022311322046BDE8704000F034BA01
:10044000725000002DE9F05F894604464FF0000A23
:10045000DFF874B1FB44C0F820A02046E16888476B
:10046000002874D0252806D0D4E901219047206ABD
:10047000401C2062F1E700265F462046E16888477D
:100480002028054607DB312D05D2781910F8200CFD
:1004900008B10643F1E7B00701D526F00406C4F819
:1004A0001CA00027C4F818A02A2D09D0284602F065
:1004B00011FA38B304EB8708303DC8F8185019E03A
:1004C00059F8041B204604EB87029161E1688847D4
:1004D000012F054618D1E069002820DA26F0200611
:1004E0001DE0D8F8180000EB800005EB4000303824
:1004F000C8F818002046E1688847054602F0EAF986
:100500000028EED1012F0AD02E2D08D12046E16817
:1005100088477F1C0546022F46F02006C4DBA069F1
:10052000002803DA404246F00106A061F00701D03E
:1005300026F010066C2D0BD0682D09D04C2D39D02B
:100540006A2D35D0742D35D07A2D33D016E038E0B1
:10055000E1682F4620468847B842054609D16C2FEE
:1005600026D04FF48060E168064320468847054660
:1005700004E06C2F1AD04FF4807006430DB3A5F140
:100580004100192802D8203546F400664A4629461B
:10059000204626604E46FFF725FE80B101280BD08D
:1005A000F61D26F0070000F1080956E74020E4E7B1
:1005B0008020D8E70020D6E706F104094DE7284659
:1005C00052E7206ABDE8F09F485000000EB505468E
:1005D00014460E4613A000F0F4F9284600F0F1F995
:1005E00016A000F0EEF9304600F0EBF915A000F08F
:1005F000E8F900218DF80B100A210DF10A008DF8A1
:100600000A1008E094FBF1F201FB124294FBF1F4B2
:10061000303200F8012D002CF4DC00F0D2F900F0AB
:10062000C5F900002A2A2A20617373657274696F04
:100630006E206661696C65643A2000002C20666952
:100640006C6520002C206C696E65200010B5431C81
:1006500002E010F8011B71B18107FAD14FF00132AD
:1006600002C88C1A8C4314EAC211F9D0C01A0A06C7
:1006700003D0C01E10BDC01A10BD0A0401D0801ED8
:1006800010BD0902FCD0401E10BD40EA010370B548
:100690009B072ED14FF00136042A2AD308C810C96F
:1006A0009D1B9D43121F15EAC61517D0D8B2E1B2A3
:1006B000401A50EA056110D198B2A1B2401A50EA2E
:1006C00005410AD123F07F4024F07F41401A50EACF
:1006D000052102D1180EA0EB146070BDA342DBD03F
:1006E00018BA21BA884201D9012070BD4FF0FF30FD
:1006F00070BD0AB9002070BD10F8013B11F8014B24
:1007000063B1A3420AD1521E08D010F8013B11F880
:10071000014B1BB1A34201D1521EEDD1181B70BD7C
:10072000032A40F2308010F0030C00F0158011F81D
:10073000013BBCF1020F624498BF11F801CB00F8F5
:10074000013B38BF11F8013BA2F1040298BF00F849
:1007500001CB38BF00F8013B11F0030300F0258006
:10076000083AC0F0088051F8043B083A51F804CB2D
:10077000A0E80810F5E7121D5CBF51F8043B40F8F3
:10078000043BAFF30080D20724BF11F8013B11F8FE
:1007900001CB48BF11F8012B24BF00F8013B00F842
:1007A00001CB48BF00F8012B704710B5203AC0F0CC
:1007B0000B80B1E81850203AA0E81850B1E8185062
:1007C000A0E81850BFF4F5AF5FEA027C24BFB1E89F
:1007D0001850A0E8185044BF18C918C0BDE8104010
:1007E0005FEA827C24BF51F8043B40F8043B08BF19
:1007F0007047D20728BF31F8023B48BF11F8012BE0
:1008000028BF20F8023B48BF00F8012B70474FF08B
:1008100000020429C0F0128010F0030C00F01B80CD
:10082000CCF1040CBCF1020F18BF00F8012BA8BFDB
:1008300020F8022BA1EB0C0100F00DB85FEAC17C9F
:1008400024BF00F8012B00F8012B48BF00F8012B52
:1008500070474FF0000200B5134694469646203983
:1008600022BFA0E80C50A0E80C50B1F12001BFF469
:10087000F7AF090728BFA0E80C5048BF0CC05DF8CF
:1008800004EB890028BF40F8042B08BF704748BF1D
:1008900020F8022B11F0804F18BF00F8012B704791
:1008A00070477047704770472DE9F0470D469946ED
:1008B0009246044600F124080168880604D5E069E0
:1008C00021F01001216000E00120A84201DD471B5A
:1008D00000E00027A1697A1902EB0900081AA0615B
:1008E0002078C00602D42046FFF7F4FC002608E07A
:1008F000D4E901211AF806009047206A401C761CB2
:1009000020624E45F4DB2078C0060AD52046FFF76A
:10091000E1FC06E0D4E9012130209047206A401C28
:100920002062381EA7F10107F4DC07E0D4E90121B9
:1009300018F805009047206A401C2062281EA5F187
:100940000105F3DC2046FFF7DBFC2078000602D52A
:100950000220BDE8F0870120FBE710B5436913B121
:10096000AFF3008001E0FFF7DCFC012010BD12783E
:1009700000F124010A7000224A700122EDE711689B
:100980004FF0FF32E9E70000074B70B50D467B449E
:1009900000F027F80446284600F036F810B14FF072
:1009A000FF3070BD204670BDEB31000010B5002057
:1009B00000F02EF8FFF729FCBDE81040012001F0FF
:1009C00090BF10B5044602E0641C01F08CFF207853
:1009D0000028F9D110BD000001694A1C02610878A5
:1009E000704700B58FB0CDE901310021059105496F
:1009F0007944CDE9031011466846FFF723FD0FB097
:100A000000BD0000E5FFFFFF007B00F080007047A5
:100A100010B500F037F8BDE8104000F02EB875466C
:100A200000F048F8AE4605006946534620F007003E
:100A3000854618B020B5FFF707FCBDE820404FF011
:100A400000064FF000074FF000084FF0000B21F0B8
:100A50000701AC46ACE8C009ACE8C009ACE8C00985
:100A6000ACE8C0098D46704710B50446AFF300806E
:100A70002046BDE81040FFF7D3BB002801D001F0AD
:100A800030BF704710B5002102A000F017F8012018
:100A900010BD0000534947414252543A2041626E12
:100AA0006F726D616C207465726D696E6174696FCF
:100AB0006E00000000487047CC07002070B5054666
:100AC0000C460A2000E06D1C01F00DFF35B12878BE
:100AD0000028F8D102E0641C01F005FF14B1207871
:100AE0000028F8D1BDE870400A2001F0FCBE00BF2C
:100AF000FEE700002DE9F04188B004460D46164699
:100B00001F46DDF838801148114908601C2201A9F0
:100B10000F48001DFFF749FE0D484760C0F80880E8
:100B2000C46006614561002101764176817601212C
:100B3000C17600210177417700F0D1F918B1012089
:100B400008B0BDE8F0810020FAE700000064004032
:100B500030070020FEB506460D460024122011493C
:100B60000860486000208860C8600846056100BFD2
:100B700004E0305D0DF80400601CC4B2AC42F8DB48
:100B800002AB6A460749084800F05EF808B1012048
:100B9000FEBD00BF044800F087F90328FAD1002009
:100BA000F6E70000580700203007002000B58BB0A2
:100BB00000200690079001200890002001900290EC
:100BC000039004900590012009900E200A9001A93D
:100BD000104800F0E4F808B100BFFEE70D4800F04F
:100BE00073FA08B100BFFEE702210A4800F017F8C7
:100BF00008B100BFFEE740F221300749086001203C
:100C000048600020C86088600220086100200875E4
:100C10000BB000BD3007002058070020704710B50A
:100C2000024692F82030012B01D0022B06D1106829
:100C30004069084314686061002010BD506A40F4A8
:100C4000802050620120F8E7F0B504460D461E46AC
:100C500094F8207020688368A86800B900E000BF9D
:100C6000012F01D0022F7CD103F0806030B903F056
:100C7000006018B903F08050002873D0C3F30161FD
:100C8000022905D9606A40F4000060620120F0BDCD
:100C9000012088403060A86860B9B5F800C0E868F5
:100CA00040EA4C5C206800F5C07000EB0110C0F811
:100CB00000C00FE0D5E901C040EACC00D5F80CC077
:100CC00040EA0C00D4F800C00CF5C07C0CEB011C11
:100CD000CCF80000D5F810C0206800F5C07000EB1B
:100CE0000110C0F804C0287D01280ED1206800F54D
:100CF000C07000EB0110406840F4807C206800F573
:100D0000C07000EB0110C0F804C0D079000692F862
:100D100006C040EA0C4092F805C040EA0C2C10795D
:100D20004CEA000C206800F5C07000EB0110C0F820
:100D30000CC0D078000692F802C040EA0C4092F84D
:100D400001C040EA0C2092F800C040EA0C00D4F840
:100D500000C00CF5C07C0CEB011CCCF8080020682E
:100D600001E016E00FE000F5C07000EB0110006834
:100D700040F0010C206800F5C07000EB0110C0F8D5
:100D800000C0002083E7606A40F400106062012028
:100D90007DE7606A40F480206062012077E7F0B56B
:100DA00004460A46216894F82050012D01D0022DF6
:100DB00074D1D1F8000240F00100C1F80002107DAA
:100DC00000F01F06012000FA06F3D1F81C02984338
:100DD000C1F81C02D069C8B9D1F80C029843C1F817
:100DE0000C02908880B2968940EA064601F51070A0
:100DF000576940F83760108880B2168940EA064685
:100E000001F51070576900EBC7004660D0690128F2
:100E100019D1D1F80C021843C1F80C02908880B2A5
:100E2000168840EA064601F51070576940F83760A9
:100E3000908980B2168940EA064601F5107057691C
:100E400000EBC7004660906928B9D1F804029843C6
:100E5000C1F8040204E0D1F804021843C1F8040206
:100E6000106928B9D1F814029843C1F8140204E0BB
:100E7000D1F814021843C1F81402106A012804D1F1
:100E8000D1F81C021843C1F81C02D1F8000220F06E
:100E90000100C1F800020020F0BDFFE7606A40F4E5
:100EA000802060620120F7E70146002091F82020B1
:100EB000012A01D0022A11D10B689B6803F08063DC
:100EC00003B1401C0B689B6803F0006303B1401C36
:100ED0000B689B6803F0805303B1401C704770B5EA
:100EE00004460CB9012070BD94F8200010B92046CA
:100EF00000F0B0F82068006820F002002168086067
:100F000000F08EFB05460DE000F08AFB401B0A282E
:100F100008D9606A40F400306062052084F820003F
:100F20000120E0E72068406800F002000028EBD1D3
:100F30002068006840F001002168086000F070FB44
:100F400005460DE000F06CFB401B0A2808D9606ADA
:100F500040F400306062052084F820000120C2E7E0
:100F60002068406800F001000028EBD0207E0128B6
:100F700006D12068006840F080002168086005E024
:100F80002068006820F0800021680860607E0128E9
:100F900006D12068006840F040002168086005E044
:100FA0002068006820F0400021680860A07E0128C9
:100FB00006D12068006840F020002168086005E044
:100FC0002068006820F0200021680860E07E012889
:100FD00006D12068006820F010002168086005E054
:100FE0002068006840F0100021680860207F012818
:100FF00006D12068006840F008002168086005E01C
:101000002068006820F0080021680860607F0128DF
:1010100006D12068006840F004002168086005E0FF
:101020002068006820F0040021680860D4E902010B
:10103000084321690843616908436168491E084300
:101040002168C86100206062012084F8200000202F
:1010500049E7000010B586B0044600BF1848C069D3
:1010600040F000701649C8610846C06900F0007081
:10107000019000BF00BF00BF0846806940F0040037
:1010800088610846806900F00400019000BF00BF3D
:101090008814029002200390012004900320059000
:1010A00002A9084800F014F94FF4006002900020F3
:1010B000039002A9034800F00BF906B010BD000030
:1010C000001002400008014070B5044694F820006A
:1010D000012822D1022084F820002068006820F036
:1010E00001002168086000F09BFA05460DE000F061
:1010F00097FA401B0A2808D9606A40F40030606201
:10110000052084F82000012070BD2068406800F0B0
:1011100001000028EBD16062F6E7606A40F400202D
:1011200060620120F0E7000070B50446002594F8E5
:101130002100022803D00420A0630125C1E020681B
:10114000006820F00E00216808602068006820F028
:101150000100216808605C492068884252D95A49D8
:1011600078392068884201D1012047E05649643926
:101170002068884201D1102040E05349503920684E
:10118000884201D1801539E04F493C3920688842B6
:1011900001D1801432E04C4928392068884202D1BC
:1011A0004FF480302AE0484914392068884202D13F
:1011B0004FF4801022E044492068884201D1400465
:1011C0001CE042492068884201D1012016E03F49D5
:1011D00014312068884201D110200FE03B492831AA
:1011E0002068884201D1801508E038493C312068E8
:1011F000884201D1801401E04FF480303349091F47
:10120000086051E0304978392068884201D10120D6
:1012100047E02D4964392068884201D1102040E020
:10122000294950392068884201D1801539E0264982
:101230003C392068884201D1801432E022492839A3
:101240002068884202D14FF480302AE01E491439C8
:101250002068884202D14FF4801022E01A492068A9
:10126000884201D140041CE018492068884201D11D
:10127000012016E0154914312068884201D1102060
:101280000FE0124928312068884201D1801508E01A
:101290000E493C312068884201D1801401E04FF4AE
:1012A0008030094980394860012084F8210000BF5E
:1012B000002084F8200000BF606B10B12046616BF5
:1012C0008847284670BD00008000024008040240A4
:1012D0002DE9F847024600239C467BE14FF00108C8
:1012E00008FA03F4D1F8008008EA0400A0427DD196
:1012F000DFF8F4A2D1F80480A8EB0A09D0453AD06F
:1013000014DCB8F1030F50D009DCB8F1000F31D074
:10131000B8F1010F1CD0B8F1020F49D120E0B8F1AB
:10132000110F18D0B8F1120F42D11EE0B9F5881F85
:1013300025D006DCB9F5803F20D0B9F5801F37D124
:101340001AE0B9F5001F18D0B9F5041F30D117E025
:10135000D1F80CC02DE0D1F80C8008F1040C28E085
:10136000D1F80C8008F1080C23E0D1F80C8008F1CA
:101370000C0C1EE000BF00BF00BF00BF00BF00BFDD
:10138000D1F80880B8F1000F02D14FF0040C0BE047
:10139000D1F80880B8F1010F03D14FF0080C1461A7
:1013A00002E04FF0080C546103E04FF0000C00E045
:1013B00000BF00BFFF2801D8904601E002F10408F9
:1013C0004646FF2802D84FEA830803E0A3F1080845
:1013D0004FEA88084746D6F800804FF00F0909FA0F
:1013E00007F928EA09080CFA07F900E07AE048EA68
:1013F0000908C6F80080D1F8048008F08058B8F1D8
:10140000805F6FD100BFDFF8E481D8F8188048F022
:101410000108DFF8D891C9F81880C846D8F81880B4
:1014200008F00108CDF8008000BF00BF4FEAB938CE
:101430004FEA930958F829504FEA83784FEA187910
:101440004FF00F0808FA09F825EA0805DFF8A0812F
:10145000424502D14FF0000824E0DFF89881424570
:1014600002D14FF001081DE0DFF88C81424502D126
:101470004FF0020816E0DFF88481424502D14FF0B8
:1014800003080FE0DFF87881424502D14FF00408ED
:1014900008E0DFF87081424502D14FF0050801E015
:1014A0004FF006084FEA83794FEA197908FA09F8EC
:1014B00048EA0505DFF850814FEA930948F82950BA
:1014C000D1F8048008F48038B8F5803F0BD1DFF8FC
:1014D0003C81D8F8008048EA0008DFF83091C9F86C
:1014E00000800AE075E0DFF82481D8F8008028EA5F
:1014F0000008DFF81891C9F80080D1F8048008F4DA
:101500000038B8F5003F0ED1DFF8008108F104087B
:10151000D8F8008048EA0008DFF8F09009F10409E3
:10152000C9F800800DE0DFF8E48008F10408D8F87D
:10153000008028EA0008DFF8D49009F10409C9F80E
:101540000080D1F8048008F48018B8F5801F0ED10F
:10155000DFF8B88008F10808D8F8008048EA0008E9
:10156000DFF8A89009F10809C9F800800DE0DFF85C
:101570009C8008F10808D8F8008028EA0008DFF805
:101580008C9009F10809C9F80080D1F8048008F4AA
:101590000018B8F5001F0ED1DFF8708008F10C08B4
:1015A000D8F8008048EA0008DFF8609009F10C09DB
:1015B000C9F800800DE0DFF8548008F10C08D8F875
:1015C000008028EA0008DFF8449009F10C09C9F806
:1015D00000805B1CD1F8008028FA03F8B8F1000FF6
:1015E0007FF47CAEBDE8F8870000111000100240C7
:1015F00000080140000C01400010014000140140AF
:1016000000180140001C0140080001400004014096
:10161000024693680B400BB1012000E000207047A8
:1016200001480068704700009C00002003480068E3
:101630000349097808440149086070479C0000206C
:10164000A400002010B50848006840F010000649CA
:101650000860052000F080F80F2000F007F800F087
:101660002BF8002010BD00000020024070B5044699
:101670000E4800784FF47A71B1FBF0F00C4909681C
:10168000B1FBF0F5284600F0F7FB08B1012070BD72
:10169000102C07D200222146501E00F01EF80548EB
:1016A000046001E00120F2E70020F0E7A400002040
:1016B00000000020A00000207047014608460028D6
:1016C00009DB00F01F0301229A4043099B0003F14C
:1016D000E023C3F8002100BF70472DE9F05F80468A
:1016E0000D461646002701F0D9F8074639462A4626
:1016F000334601F00700C0F1070ABAF1040F02D91E
:101700004FF0040A01E0C0F1070AD14600F1040AD3
:10171000BAF1070F02D24FF0000A01E0A0F1030A6C
:10172000D4464FF0010A0AFA09FAAAF1010A0AEAB4
:10173000020A0AFA0CFA4FF0010B0BFA0CFBABF1A0
:10174000010B0BEA030B4AEA0B042146404601F069
:10175000ADF8BDE8F09F000000BF00F00702064BA7
:1017600019684FF6FF031940044B0B4343EA02216B
:10177000014B196000BF70470CED00E00000FA0556
:1017800070B504460D460CB9012070BD5A4800687A
:1017900000F00700A8420ED25748006820F007006A
:1017A0002843554908600846006800F00700A84231
:1017B00001D00120E9E7207800F0020002281DD1C5
:1017C000207800F00400042805D14C48406840F41B
:1017D000E0604A494860207800F00800082805D1F8
:1017E0004648406840F46050444948604348406877
:1017F00020F0F000A168084340494860207800F0DC
:10180000010078B36068012806D13C48006800F404
:10181000003090B90120B8E76068022806D1374847
:10182000006800F0007040B90120AEE7334800685E
:1018300000F0020008B90120A7E73048406820F016
:101840000300616808432D494860FFF7E9FE06463A
:1018500009E0FFF7E5FE801B41F28831884202D99A
:10186000032092E707E02548406800F00C0061681B
:10187000B0EB810FEDD12048006800F00700A842CE
:101880000ED91D48006820F0070028431A49086057
:101890000846006800F00700A84201D0012074E764
:1018A000207800F00400042807D11448406820F490
:1018B000E060E168084311494860207800F00800C2
:1018C000082808D10D48406820F46050216940EA9A
:1018D000C1000A49486000F03FF808494968C1F36F
:1018E0000311074A515CC840064908600648006871
:1018F000FFF7BCFE002048E7002002400010024035
:101900006054000800000020A0000020014800688A
:10191000704700000000002000B5FFF7F7FF044902
:101920004968C1F30221034A515CC84000BD000070
:10193000001002407054000800B5FFF7E7FF0449AB
:101940004968C1F3C221034A515CC84000BD000090
:101950000010024070540008F0B585B00FF26C0C16
:101960009CE8E01001A8A0E8E0101CA52D680095F7
:1019700000210022002300240020194D696801F095
:101980000C05F5B1042D02D0082D19D101E0154840
:1019900019E001ADC1F38346AC5D01F4803555B16A
:1019A0000F4D6D68C5F340451DF805200D4D65438D
:1019B000B5FBF2F302E00C4D04FB05F3184602E020
:1019C00000BF084800BF00BF05B0F0BD020304051A
:1019D000060708090A0B0C0D0E0F1010010200007B
:1019E0000010024000127A0000093D00F8B50446DC
:1019F0000CB90120F8BD207800F00100002878D053
:101A0000F848406800F00C0004280CD0F548406805
:101A100000F00C00082811D1F248406800F4803032
:101A2000B0F5803F0AD1EF48006800F4003000288C
:101A30005FD0606800285CD10120DBE700BF6068F0
:101A4000B0F5803F06D1E748006840F48030E549B2
:101A5000086028E0606858B9E248006820F48030E7
:101A6000E04908600846006820F4802008601AE019
:101A70006068B0F5A02F0BD1DA48006840F48020F0
:101A8000D84908600846006840F4803008600AE0E1
:101A9000D448006820F48030D249086008460068C5
:101AA00020F48020086000BF606888B1FFF7B8FDAF
:101AB000054606E0FFF7B4FD401B642801D903206A
:101AC00098E7C848006800F400300028F2D010E021
:101AD000FFF7A6FD054606E0FFF7A2FD401B6428C0
:101AE00001D9032086E7BF48006800F400300028D1
:101AF000F2D1207800F00200022857D1B94840689E
:101B000000F00C0050B1B748406800F00C00082805
:101B100018D1B448406800F4803098B9B1480068E2
:101B200000F0020020B12069012801D0012061E706
:101B3000AC48006820F0F800616940EAC100A9499A
:101B4000086033E02069E8B10120A7490860FFF789
:101B500067FD054606E0FFF763FD401B022801D93B
:101B6000032047E79F48006800F002000028F2D0F9
:101B70009C48006820F0F800616940EAC10099497A
:101B8000086013E0002098490860FFF749FD05460A
:101B900006E0FFF745FD401B022801D9032029E795
:101BA0009048006800F002000028F2D1207800F090
:101BB000080008282DD1A069B8B101208B49086020
:101BC000FFF72EFD054606E0FFF72AFD401B022821
:101BD00001D903200EE78348406A00F00200002884
:101BE000F2D0012000F0A8FB13E000207F4908603C
:101BF000FFF716FD054606E0FFF712FD401B022821
:101C000001D90320F6E67748406A00F00200002878
:101C1000F2D1207800F00400042873D10027714825
:101C2000C06900F0805070B900BF6E48C06940F0D4
:101C300080506C49C8610846C06900F0805000902F
:101C400000BF00BF01276A48006800F48070B0B987
:101C50006748006840F4807065490860FFF7E0FC61
:101C6000054606E0FFF7DCFC401B642801D9032091
:101C7000C0E65F48006800F480700028F2D000BF22
:101C8000E068012806D15748006A40F00100554934
:101C9000086227E0E06858B95248006A20F0010065
:101CA000504908620846006A20F00400086219E002
:101CB000E06805280BD14B48006A40F00400494910
:101CC00008620846006A40F0010008620AE04548E0
:101CD000006A20F00100434908620846006A20F0CB
:101CE0000400086200BFE068A0B1FFF799FC054658
:101CF00009E0FFF795FC401B41F28831884202D988
:101D0000032077E622E03748006A00F0020000284E
:101D1000EFD012E0FFF784FC054608E0FFF780FCF7
:101D2000401B41F28831884201D9032062E62D48E8
:101D3000006A00F002000028F0D1012F05D12948E7
:101D4000C06920F080502749C86100BFE069C8B36E
:101D50002448406800F00C00082860D0E0690228A0
:101D600048D1002020490866FFF75AFC054606E0E6
:101D7000FFF756FC401B022801D903203AE6194818
:101D8000006800F000700028F2D1206AB0F5803FB2
:101D900007D11448406820F40030A1680843114975
:101DA0004860D4E9080108430E49496821F47411D8
:101DB00008430C49486001200B490866FFF730FCD6
:101DC000054607E03DE0FFF72BFC401B022801D948
:101DD00003200FE60348006800F000700028F2D0EE
:101DE0002FE0000000100240000042428004424206
:101DF00000700040002014490866FFF711FC0546FA
:101E000006E0FFF70DFC401B022801D90320F1E595
:101E10000E48006800F000700028F2D111E0E0697F
:101E2000012800D1E6E50948466806F48031206AB9
:101E3000814204D106F47011606A814201D0012010
:101E4000D8E50020D6E50000000042420010024024
:101E5000042808D14FF0E021096941F004014FF056
:101E6000E022116107E04FF0E021096921F004014F
:101E70004FF0E0221161704770B504462546681E98
:101E8000B0F1807F01D301200FE0681E4FF0E02108
:101E900048610F214FF0FF3000F008FD00204FF0A7
:101EA000E021886107200861002070BD10B504465C
:101EB0000CB9012010BD94F83D0028B9002084F829
:101EC0003C00204600F00CF8022084F83D00211D63
:101ED000206800F0C3FA012084F83D000020E9E703
:101EE000704701460868C06840F001000B68D86080
:101EF0000868806800F00702062A05D008680068B4
:101F000040F001000B6818600020704770470146E0
:101F10000022002391F8392091F83A3042EA030078
:101F2000704700002DE9F0470446206805682068E6
:101F3000C668206847694FF00008C14605F00F08E1
:101F4000B8F1000F0AD105F0200038B106F02000EA
:101F500020B1204600F028FBBDE8F087B8F1000F63
:101F60006DD007F0010018B906F49070002866D013
:101F700005F0010030B106F4807018B1E06B40F05C
:101F80000100E06305F0040030B107F0010018B172
:101F9000E06B40F00200E06305F0020030B107F0B2
:101FA000010018B1E06B40F00400E06305F00800A8
:101FB00030B107F0010018B1E06B40F00800E063B9
:101FC000E06B68B305F0200028B106F0200010B1E6
:101FD000204600F0E9FA20684069C0F38019E06B00
:101FE00000F0080010B9B9F1000F22D0204600F02F
:101FF000BBFA2068406900F04000B0B12068406939
:1020000020F0400021684861606B50B11748616B57
:102010004863606BFFF788F810B1606B416B8847CD
:102020000CE02046FFF772FF08E02046FFF76EFF46
:1020300004E02046FFF76AFF0020E0638CE705F02C
:10204000800030B106F0800018B1204600F0D0FBCF
:1020500082E705F0400030B106F0400018B120469C
:1020600000F092FA78E700BF76E7000055250008F7
:1020700010B504460CB9012010BDA06900B100E004
:1020800000BF94F8390028B9002084F838002046B1
:1020900000F028F8242084F839002068C06820F473
:1020A00000502168C860204600F0D2FA206800691C
:1020B00020F49040216808612068406920F02A00DF
:1020C000216848612068C06840F400502168C860F9
:1020D0000020E063202084F8390084F83A000020D2
:1020E000CAE7000010B586B004462549206888423A
:1020F00044D100BF2348806940F004002149886131
:102100000846806900F00400019000BF00BF00BFD6
:102110000846806940F4804088610846806900F480
:102120008040019000BF00BF00BF0846806940F0BA
:10213000010088610846806900F00100019000BF3D
:1021400000BF481502900220039001200490032054
:10215000059002A90C48FFF7BBF84FF4806002908D
:102160000020039002A90848FFF7B2F82520FFF7E6
:10217000A4FA032211462520FFF7AFFA06B010BDDE
:1021800000380140001002400008014010B503462D
:1021900093F83A0020282FD101B10AB9012010BDCF
:1021A00000BF93F83800012801D10220F7E7012091
:1021B00083F8380000BF99629A85DA850020D863D9
:1021C000222083F83A0000BF002083F8380000BFC7
:1021D0001868C06840F480701C68E0601868406946
:1021E00040F001001C6860611868C06840F0200081
:1021F0001C68E0600020D2E70220D0E71D4A016899
:10220000914236D11C49098801F4004189BB1A4921
:10221000098801F4804171B1184909780A2903D06D
:102220000021154A118024E01349098841F4004136
:10223000114A11801DE0114909780D2906D10E4976
:10224000098841F480410C4A118012E00B49097859
:10225000094A1288C2F30D02094B995406490988AC
:10226000491C054A118011460988C72901DD002152
:102270001180704700380140B0000020B2000020FB
:1022800028060020704700BFFEE7000010B5044696
:10229000012C01D1234908702248007858B310213D
:1022A0002148FFF7B5F950B108211F48FFF7B0F9F1
:1022B00028B101211D48FFF7ABF901281BD10A20E5
:1022C00001F00CF900201749087010211648FFF79B
:1022D0009FF908B9012010BD08211348FFF798F9AC
:1022E00008B90220F7E701211048FFF791F901280A
:1022F00015D10320EFE710210B48FFF789F90128DA
:102300000DD108210848FFF783F9012807D10121E1
:102310000648FFF77DF910B9012002490870002036
:10232000D9E70000B3000020001801400008014078
:1023300000BFFEE77047704708B508490968C9083B
:102340004FF47A72B1FBF2F14143009100BF00BF3C
:1023500000994A1E00920029F9D108BD0000002012
:10236000704730B58FB00546002401200590000469
:1023700006900020079002200C90C1030D910E954D
:1023800005A8FFF733FB04460CB100BFFEE70F20A2
:10239000009002200190002002904FF48060039092
:1023A0000020049002216846FFF7EAF904460CB1C8
:1023B00000BFFEE70FB030BD10B5FFF737F910BD15
:1023C0001148006840F001000F4908600846406865
:1023D0000E4908400C494860084600680C4908400E
:1023E000094908600846006820F480200860084613
:1023F000406820F4FE0048604FF41F008860C80366
:102400000449086070470000001002400000FFF817
:10241000FFFFF6FE08ED00E010B50E480068C0684A
:1024200000F0010078B10C49086980470020094993
:102430000968486200BF642006490968C8626421CF
:102440000448C16000BF6FF00100024909680861DB
:1024500010BD00008C070020F000002010B50268BD
:10246000204B98420ED0204B98420BD0B0F1804FB9
:1024700008D01E4B984205D01D4B984202D01D4BF0
:10248000984203D122F070024B681A43154B9842D0
:102490000ED0154B98420BD0B0F1804F08D0134BA3
:1024A000984205D0124B984202D0124B984203D169
:1024B00022F44072CB681A4322F080034C6943EA4D
:1024C000040202608B68C3620B688362054B98420A
:1024D00002D0054B984201D10B690363012343618C
:1024E00010BD0000002C01400034014000040040F9
:1024F00000080040000C004038B504460D4600BFFF
:102500001148C06940F004000F49C8610846C0691D
:1025100000F00400009000BF00BF032211461E20FF
:10252000FFF7DBF81E20FFF7C8F8084808490860E5
:102530000846456000218160C4600161FFF7B6FC78
:102540000348FFF7CEFC38BD0010024000080040F1
:102550008C07002070B505466C6A0020E085E08499
:102560002046FFF7D3FC70BD0168C96821F4907163
:102570000268D1600168496921F001010268516176
:10258000202180F83A10704710B504462068C068D2
:1025900020F040002168C860202084F839002046DF
:1025A000FFF770FE002010BD70B5044694F83A00A5
:1025B00022284AD1A068B0F5805F13D1A56A2069AE
:1025C00040B920684068C0F308002880A06A801CD9
:1025D000A06219E020684068C0B22880A06A401C50
:1025E000A06211E0206938B920684068C1B2A26ACF
:1025F000501CA062117007E02068406800F07F0165
:10260000A26A501CA0621170E08D401E80B2E0856D
:10261000C8B92068C06820F020002168C860206820
:10262000C06820F480702168C8602068406920F08C
:10263000010021684861202084F83A002046FFF715
:10264000DDFD002070BD0020FCE70220FAE700005D
:1026500070B504462168096921F44051E2681143CC
:10266000226811612269A1681143626941EA020589
:102670002168C96841F20C62914329432268D16004
:102680002168496921F44071A269114322685161AE
:10269000564A2168914254D1FFF74EF900EBC00130
:1026A00001EB001162689200B1FBF2F100EBC00295
:1026B00002EB001263689B00B2FBF3F26423B2FBEF
:1026C000F3F202EBC20303EB0212A1EB820132220E
:1026D00002EB01116422B1FBF2F101F0F00100EB19
:1026E000C00202EB001263689B00B2FBF3F26423AA
:1026F000B2FBF3F201EB021200EBC00101EB00119F
:1027000063689B00B1FBF3F100EBC00303EB001324
:102710006668B600B3FBF6F36426B3FBF6F303EB8F
:10272000C30606EB0313A1EB8301322303EB011174
:102730006423B1FBF3F101F00F01114422689160B1
:1027400053E0FFF7E9F800EBC00101EB001162680C
:102750009200B1FBF2F100EBC00202EB00126368E1
:102760009B00B2FBF3F26423B2FBF3F202EBC20371
:1027700003EB0212A1EB8201322202EB011164226F
:10278000B1FBF2F101F0F00100EBC00202EB00122C
:1027900063689B00B2FBF3F26423B2FBF3F201EB3C
:1027A000021200EBC00101EB001163689B00B1FB5A
:1027B000F3F100EBC00303EB00136668B600B3FB54
:1027C000F6F36426B3FBF6F303EBC30606EB031341
:1027D000A1EB8301322303EB01116423B1FBF3F17D
:1027E00001F00F0111442268916070BD0038014072
:1027F000014691F8390021282CD18868B0F5805F16
:102800000FD10A6A1088C0F308000B685860086985
:1028100018B9086A801C086209E0086A401C08624E
:1028200005E00B6A581C086218780B685860C88C61
:10283000401E80B2C88458B90868C06820F0800083
:102840000B68D8600868C06840F040000B68D8602A
:10285000002070470220FCE710B500240C48FFF769
:1028600061FB00BF01E0641C00BF0948FFF74FFB9C
:102870002028F8D100BF002401E0641C00BF012221
:1028800004490348FFF782FC0028F6D100BF10BDC1
:10289000F0060020B200002000BFFEE702480068FA
:1028A000C0F30220704700000CED00E010B50028D6
:1028B00004DB0A07130E054A135406E00A07140E38
:1028C000034A00F00F031B1FD45410BD00E400E0C6
:1028D00018ED00E030380A2801D2012070470020AE
:1028E000704700BF704700BF70470146086808B9CD
:1028F000002070470A68086800680860C888401CA3
:10290000C8800B89C888834201DACB880B811046C6
:10291000EFE700002DE9FF4F85B014469846129D61
:10292000059800B125B96FF0010009B0BDE8F08F3E
:10293000012C01DB402C02DD6FF00100F5E7012CDA
:1029400004D1B8F1000F01D0E01EEEE700200090A6
:1029500001906B462246DDE9050100F0EFFD0646D9
:10296000002E01DC3046E0E7002E04DD402E02DCC4
:10297000A64200DC05E040F2E2228EA195A0FDF720
:1029800025FEE11704EB5171C910A4EBC10159B147
:10299000684600EBD4000078614201F0070108416D
:1029A000694601EBD40108700027012C01D10127F1
:1029B00016E0082C01DC012712E0102C01DC0227B4
:1029C0000EE0202C01DC04270AE0402C01DC082763
:1029D00005E040F2FB2277A18DA0FDF7F7FD00BFD7
:1029E000002F02DD082F00DC05E040F2FF2271A17C
:1029F00088A0FDF7EBFD01F0E6F918B1394668460D
:102A000001F074FBB8F1000F78D0B4EBC70F75D0AC
:102A1000082C12DC9DF80000611E01228A40104043
:102A200000286BD09DF800100120A040401EC0433C
:102A3000C0B201438DF8001060E0102C12DCBDF82C
:102A40000000611E01228A401040002856D0BDF8C7
:102A500000100120A040401EC04380B20143ADF8E9
:102A600000104BE0202C0DDC611E01228A400098F2
:102A70001040D8B30120A040401E009961EA000137
:102A800000913BE0402C32DA621E4FF00109002039
:102A9000DDE900AB029048460299FDF7E8FB0AEA3F
:102AA000000A0BEA010B00218AEA010A8BEA010BFA
:102AB0005AEA0B0A21D0224601210020DDE900ABB1
:102AC000CDE9030108460399FDF7D1FB401E61F1F2
:102AD0000002C1434FF0FF33194023EA02004AEAE3
:102AE000010A4BEA000BCDE900AB06E006E040F23C
:102AF0002D3230A146A0FDF769FD00BFB8F1000FEF
:102B00001ED0082C03DC9DF8000028703DE0102C3E
:102B100003DCBDF80000288037E0202C02DC0098A0
:102B2000286032E0402C04DCDDE90001C5E9000149
:102B300005E040F23D321FA135A0FDF747FD24E03E
:102B4000012C03D19DF8000028701EE0082C03DC46
:102B50009DF80000287018E0102C03DCBDF8000080
:102B6000288012E0202C02DC009828600DE0402C28
:102B700004DCDDE90001C5E9000105E040F24A326C
:102B80000CA123A0FDF722FD00BFA64200DC05E05A
:102B900040F24F3207A12BA0FDF718FD002E00DDFB
:102BA00005E04FF4547203A12CA0FDF70FFD304651
:102BB000BBE600002E2E5C48415244574152455C12
:102BC0006C696263616E6172645C63616E617264A0
:102BD0002E63000028726573756C74203E203029C6
:102BE0002026262028726573756C74203C3D2036A3
:102BF00034292026262028726573756C74203C3D8C
:102C0000206269745F6C656E67746829000000005B
:102C100030000000287374645F627974655F6C65CE
:102C20006E677468203E2030292026262028737481
:102C3000645F627974655F6C656E677468203C3DA3
:102C400020382900726573756C74203C3D206269E0
:102C5000745F6C656E677468000000007265737560
:102C60006C74203E203000002DE9FF410646884666
:102C700014461D4606B105E040F25E323DA145A076
:102C8000FDF7A4FC05B105E040F25F3239A146A092
:102C9000FDF79CFC402C05DD40F2633235A145A0D8
:102CA000FDF794FC012C05DA40F2693231A141A014
:102CB000FDF78CFC0020029003900027012C08D126
:102CC0000127287808B1012000E000208DF80800D5
:102CD00022E0082C04DC012728788DF808001BE08E
:102CE000102C04DC02272888ADF8080014E0202C02
:102CF00003DC0427286802900EE0402C05DC08273E
:102D0000D5E90001CDE9020105E040F2863219A1C2
:102D100028A0FDF75BFC00BF002F00DD05E040F2BE
:102D2000893214A124A0FDF751FC01F04CF818B130
:102D3000394602A801F0DAF9E11704EB5171C91024
:102D4000A4EBC10159B102A800EBD40000786142A4
:102D500001F00701884002A901EBD4010870334655
:102D60002246002102A8CDF8008000F0E3FABDE879
:102D7000FF8100002E2E5C48415244574152455C71
:102D80006C696263616E6172645C63616E617264DE
:102D90002E63000064657374696E6174696F6E20E0
:102DA000213D20300000000076616C756520213DDA
:102DB00020300000300000007374645F6279746535
:102DC0005F6C656E677468203E20300001460878AD
:102DD000704700002DE9F0470446884616461F4616
:102DE000DDE9089A04B104E04F220FA116A0FDF717
:102DF000EDFB24212046FDF72CFD00202070A7606C
:102E0000C4F80490A061E061C4F820A07509B5F58C
:102E1000803F01D34FF6FF75AAB2414604F10C0082
:102E200000F0BEFFBDE8F0872E2E5C4841524457AB
:102E30004152455C6C696263616E6172645C63619E
:102E40006E6172642E6300006F75745F696E73202B
:102E5000213D2030000000002DE9FF5F84B089464D
:102E600017469846DDF84CA0DDE9165435B9002C1C
:102E700004DD6FF0010008B0BDE8F09F14981F2832
:102E800002DD6FF00100F6E70498FFF79FFF10B92D
:102E90006FF00300EFE70498FFF798FF14990A0614
:102EA000129942EA0142159942EAC13141EA0921E7
:102EB00041F0800140EA010B4FF6FF76072C0BDD55
:102EC0003A464346304600F0D2FA064622462946A4
:102ED000304600F0A1FA0646334652465946CDE93F
:102EE0000054049800F078FD03901598012802D151
:102EF000504600F027FF0398BDE700002DE9FC5F76
:102F0000824688461646B8F57A7F02D24448BDE824
:102F1000FC9F06B104E0F82242A14FA0FDF756FB4A
:102F200000203060B0805148804501D30A2000E085
:102F3000112001900198182800DC05E040F20D12E4
:102F400038A14BA0FDF742FBBAFBF8FB0198401EED
:102F5000C4B205E0022C01DC3148D8E7601EC4B2DF
:102F6000601CBBFBF0F100FB11B00028F2D1601C2B
:102F7000BBFBF0F9B9F1000F02D0B9F5806F01D9B0
:102F80002748C4E7C4EBC401C81CC11700EB51714A
:102F9000C1F3C705601BC7B2AC4200DD05E04FF4CA
:102FA000A37220A13CA0FDF711FB681C4FF47A72BC
:102FB00050436A1C3A44B0FBF2F081B2B1F5617F34
:102FC00009DDC4EBC402501EC21700EB5272C2F3FB
:102FD000C705601BC7B2012D07DB102D05DC012FD3
:102FE00003DB082F01DC012000E000200090681CBA
:102FF000384400FB09F0BAFBF0F0404501D10098DD
:1030000028B94FF4B07207A128A0FDF7DFFAA6F89F
:10301000009001203071B570F770002077E7000054
:1030200018FCFFFF2E2E5C48415244574152455C2C
:103030006C696263616E6172645C64726976657208
:10304000735C73746D33325C63616E6172645F7361
:10305000746D33322E6800006F75745F74696D692A
:103060006E677320213D20300000000040420F00B9
:103070006D61785F7175616E74615F7065725F62BA
:103080006974203C3D20284D6178425331202B202B
:103090004D617842533229006273315F6273325F4F
:1030A00073756D203E206273310000003000000017
:1030B00070B504460D4635B1012D04D0022D02D065
:1030C0006FF0010070BDC4B12088012815DB208895
:1030D000B0F5806F11DC207901280EDB20790428FF
:1030E0000BDCA078012808DBA078102805DCE0784C
:1030F000012802DBE078082802DD6FF00100E1E73B
:1031000052480021016041608160C160022D01D1FF
:10311000012000E000204E49087000204D49086061
:103120004C481438006820F002004A4914390860FD
:103130000846006840F00100086001214548143845
:1031400002F0F6F838B94FF40040424914390860EB
:103150006FF47A70B6E761203E491439086020792F
:10316000401E80078109A078401E00F00F0041EA50
:103170000041E078401E00F0070041EA005021883D
:10318000491EC1F309010843012D01D1E90700E0FF
:10319000002108432F49083108602E48006800B913
:1031A00004E0FA222CA139A0FDF710FA29481438BE
:1031B000006820F0010027491439086000212548E3
:1031C000143802F0B5F830B94FF4004021491439F1
:1031D00008603C4876E73C49096843F60E7221EAEC
:1031E000020040F4606040F00101374A116010466F
:1031F0000068C0F305200E2800D105E04FF4897265
:1032000015A13248FDF7E2F900202F49091D086099
:103210006FF070402C490C3108602D482A49143158
:1032200008600020284940310860002126484430C9
:103230000160012024491C3108602348006820F007
:1032400001002149086000203CE70000180600202A
:103250009A000020146400402E2E5C4841524457CE
:103260004152455C6C696263616E6172645C647258
:1032700069766572735C73746D33325C63616E6121
:1032800072645F73746D33322E63000030203D3DF5
:10329000202828766F6C6174696C652043616E61CB
:1032A000726453544D333243414E547970652A2928
:1032B0003078343030303634303055292D3E494561
:1032C0005200000016FCFFFF00660040CC540008CE
:1032D000AAAAAA0A70B504460D4604B104E07322F6
:1032E00008A110A0FDF772F9207828B9012D03DBA1
:1032F0007F2D01DC257004E07D2202A10CA0FDF7EA
:1033000065F970BD2E2E5C48415244574152455CD0
:103310006C696263616E6172645C63616E61726448
:103320002E630000696E7320213D203000000000F4
:10333000300000002DE9F05F80460C4691461E46A5
:103340000A9DB9F1000F00D005E040F2226226A1EB
:103350002DA0FDF73BF908EBD40806EBD50604F0E9
:10336000070405F0070504EB090738E004F007033C
:1033700005F00700834201DD9B4600E08346DC4602
:10338000A7EB040BCCF1080EF34502D2A7EB040B1C
:1033900001E0CCF1080B59464FF47F4B2BFA01FBAF
:1033A0000BF0FF0B4BFA00F208EBD40B9BF800B0CC
:1033B0000BFA03FB2BFA00FB0BF0FF0A06EBD50B15
:1033C0009BF800B02BEA020B0AEA020E4BEA0E0B46
:1033D00006EBD50E8EF800B00C440D4400BF381B30
:1033E000C4D1BDE8F09F00002E2E5C4841524457E6
:1033F0004152455C6C696263616E6172645C6361D9
:103400006E6172642E6300007372635F6C656E2080
:103410003E2030550000000070B506460C461546AB
:1034200005E014F8011B304600F007F80646281E98
:10343000A5F10105F5D1304670BD10B580EA012037
:10344000002211E000F4004343B14FF6FF7303EA9A
:10345000400341F2210483EA040003E04FF6FF73C6
:1034600003EA4000531CDAB2082AEBDB10BD2DE959
:10347000F047814617469846002410E022463D4614
:10348000464628463146FCF705FF00F0FF0A514644
:103490004846FFF7D2FF814604F1080084B2402C71
:1034A000ECDB4846BDE8F08770B505462846FFF7D7
:1034B0001CFA04460CB9002070BD14212046FDF70B
:1034C000C8F92046F8E7000010B504460420FEF7CE
:1034D000BFFC0148046010BDA800002030B50446C0
:1034E000002504E04FF47A7000F004F86D1CA5424A
:1034F000F8D330BD70B5034600224FF0E026756961
:103500000D4E366803FB06F44FF0E026B16910E07B
:103510004FF0E026B06988420BD0884202D20E1AE2
:10352000324402E02E1A0E4432440146A24200D335
:1035300000E0EDE700BF70BDA80000202DE9FF4FBF
:1035400085B00546894605B105E040F244627AA19E
:1035500081A0FDF73BF8A88AB9EBC00F03D3002088
:1035600009B0BDE8F08F079809EB0001A88AB1EB1C
:10357000C00F04D9287DC9EBC000C0B207900798DE
:10358000002800DD05E04FF4CA626BA176A0FDF7CC
:103590001DF8E86810B9286900287DD04C464FF026
:1035A000000A079E302C1AD2C4F13000B04201D973
:1035B000304601E0C4F1300000F0FF080020009028
:1035C000A86842462146089BFFF7B4FE44440AEB34
:1035D000080000F0FF0AA6EB0800C6B200BFA88AE8
:1035E0003021C1EBC00004903027E86803904CE024
:1035F000049800B105E040F271624FA15EA0FCF7B3
:10360000E5FF0498E02801D9E02000E0049800EBF1
:103610000708A04526D9A8EB0400B04201D93046DE
:1036200001E0A8EB040000F0FF0BBC4200D305E072
:1036300040F27A6240A155A0FCF7C8FFE01B02905F
:10364000CDF800A05A46DDE90210001D089BFFF7E7
:1036500071FE5C440AEB0B0000F0FF0AA6EB0B00C6
:10366000C6B200BFB84500D905E040F2846232A17D
:1036700050A0FCF7ABFFA8EB07010498401A049098
:10368000474603980068039000BF039808B1002ED6
:10369000AEDC0498864200E043E000D805E040F24A
:1036A0008A6225A14DA0FCF791FF2869D8B1002EB0
:1036B00019DDBC4200D305E040F28F621EA133A0A9
:1036C000FCF784FFA4EB0708CDF800A02869324678
:1036D0004146089BFFF72EFE34440AEB060000F03B
:1036E000FF0A002600BFA88AB4EBC00F00D805E08F
:1036F00040F29A6210A143A0FCF768FFBAF1400FB4
:1037000000DC05E040F29B620BA14AA0FCF75EFFE3
:1037100006B905E040F29C6207A14CA0FCF756FFF9
:1037200007E000200090A8684946DDE90723FFF77D
:1037300001FE079814E700002E2E5C4841524457C2
:103740004152455C6C696263616E6172645C636185
:103750006E6172642E6300007472616E73666572CE
:1037600020213D20300000006269745F6C656E6747
:103770007468203E2030000072656D61696E696E6C
:10378000675F62697473203E20300000696E707557
:10379000745F6269745F6F6666736574203E3D2076
:1037A000626C6F636B5F6269745F6F66667365748A
:1037B00000000000626C6F636B5F656E645F62693E
:1037C000745F6F6666736574203E20626C6F636B16
:1037D0005F6269745F6F66667365740072656D61C0
:1037E000696E696E675F6269745F6C656E67746845
:1037F000203C3D2072656D61696E696E675F62692C
:1038000074730000696E7075745F6269745F6F66CF
:1038100066736574203C3D207472616E73666572D8
:103820002D3E7061796C6F61645F6C656E202A203B
:10383000380000006F75747075745F6269745F6F33
:103840006666736574203C3D2036340072656D6198
:10385000696E696E675F6269745F6C656E677468D4
:10386000203D3D20300000002DE9FC4705460E4676
:1038700000200190002401200090002D3BD1002069
:10388000009001AB052221463046FFF7EDF9641D9B
:103890006B46032221463046FFF7E6F9E41C01ABF4
:1038A000062221463046FFF7DFF9A41D6B460222AF
:1038B00021463046FFF7D8F9A41C01AB0622214669
:1038C0003046FFF7D1F9A41D6B460222214630464F
:1038D000FFF7CAF9A41C00212046E21704EB52723C
:1038E000D210B1542746E01704EB5070C010401CB2
:1038F00080B2BDE8FC8701AB052221463046FFF7C8
:10390000B3F9641D6B46032221463046FFF7ACF93C
:10391000E41C05F10803402221463046FFF7A4F9D4
:10392000403401AB052221463046FFF79DF9641D66
:103930006B46032221463046FFF796F9E41C05F159
:103940002003402221463046FFF78EF9403401AB78
:10395000062221463046FFF787F9A41D6B46022256
:1039600021463046FFF780F9A41C05F118034022D8
:1039700021463046FFF778F9403401AB0622214654
:103980003046FFF771F9A41D6B46022221463046EE
:10399000FFF76AF9A41C05F11003402221463046C6
:1039A000FFF762F940342868FCF750FE8146A046D4
:1039B000E21704EB527206EBE2004A462968FCF774
:1039C000AFFE2868FCF742FEE11704EB517100EBF3
:1039D000E10080B28DE700002DE9FF4F83B0814602
:1039E00088469246119CB9F1000F00D005E040F2E4
:1039F00024424EA155A0FCF7E9FD28F06040404567
:103A000000D105E040F2254248A153A0FCF7DEFDBD
:103A1000BAF1000F04D16FF0010007B0BDE8F08FDC
:103A2000002C04DD109810B96FF00100F5E74FF09D
:103A3000000B082C25D209F10C00FFF735FD0546D7
:103A400015B96FF00200E8E7224605F10800109969
:103A5000FCF766FE601C28749AF8000000F01F0056
:103A600040F0C00105F10800015548F000406860D1
:103A70002946484600F08CFA0BF101000FFA80FB52
:103A800051E000260020029080200190002547E0B0
:103A900009F10C00FFF708FD054615B96FF00200AB
:103AA000BBE7002736B9069828720698011269729A
:103AB000022700E0002708E01098815D05F108006A
:103AC000C155781CC7B2701C86B2072F01D2A6421E
:103AD000F2DBA64201D1402000E001980190DDE92F
:103AE000010140EA41109AF8001001F01F0108435B
:103AF000C1B205F10800C15548F000406860781C6B
:103B000028742946484600F043FA0BF101000FFAE9
:103B100080FB029880F0010002900020019000BF1D
:103B2000A01BB5D100BF584677E700002E2E5C4899
:103B3000415244574152455C6C696263616E6172E7
:103B4000645C63616E6172642E630000696E732051
:103B5000213D2030000000002863616E5F69642011
:103B60002620307831464646464646465529203D71
:103B70003D2063616E5F69640000000000BF054A7C
:103B8000126802F04002002AF9D0C2B2014B1B1D9C
:103B90001A6070470038014070B5E6B004464FF433
:103BA000BE7107A8FCF755FE07A800F083F905468B
:103BB00007A90022A07ECDE90415CDE9020204F197
:103BC00019000121CDE90010E17E044A044B0548AB
:103BD000FFF742F9064666B070BD00009E6AC42138
:103BE000818A46EEE40100202DE9F04F9FB00546A2
:103BF0004FF6FF701D9000201C90002400211A91A8
:103C00001B911DA800230D22214600902846FEF797
:103C100081FE0D341CA80023032221460090284673
:103C2000FEF778FEE41C9DF87000012808D11AA860
:103C300000234022214600902846FEF76BFE4034C8
:103C40002046E11704EB5171AA8AA2EBE1011FFAA9
:103C500081F80020169017901890199000260AE01D
:103C600016A8304400230822214600902846FEF77B
:103C700051FE0834761C4645F2DB002716A8FCF7F7
:103C8000E5FC10B30DF1580B002619E006EB860198
:103C9000284A52F83100FCF7D9FC059006EB860063
:103CA000244A52F830105846059AFCF7EEFC28B921
:103CB00006EB86001F4901EBC00004E0701C86B2D1
:103CC000032EE3D3002007460BE0BDF87400032861
:103CD00001D3002104E000EB8001164A02EBC10190
:103CE0000F463FB19DF87000012803D1DDE91A01AC
:103CF000C7E90201402106A8FCF7ABFD06A938463A
:103D0000FFF7B2FD814606A90022A87ECDE904197D
:103D1000CDE9020205F119000B21CDE90010E97E81
:103D2000054A064B0648FFF797F882461FB0BDE8E4
:103D3000F08F000010000020D5A4D139F922B6A7D9
:103D4000E401002010B5044604B105E040F20B4246
:103D500006A10EA0FCF73AFC2078401C20702078C9
:103D6000202801DB0020207010BD00002E2E5C48B2
:103D7000415244574152455C6C696263616E6172A5
:103D8000645C63616E6172642E6300007472616EC4
:103D9000736665725F696420213D20300000000079
:103DA00070B50C460021034604E004EB41151D608C
:103DB0001B68491C9142F8D300251D6082800026B3
:103DC000C680068170BD08B5012000909DF80100F5
:103DD000012800D108BD0020FCE72DE9F043024690
:103DE00021F0604322F06044CF0FD50FAF4214D0D2
:103DF0000FB1980C00E0184680460DB1A00C00E011
:103E000020468146C84506D0C84502D20120BDE8FB
:103E1000F0830020FBE72846F9E7C1F3807CC2F37A
:103E20008076A34203D1B44501D03046EFE7A342E8
:103E300001D20120EBE70020E9E700000EB500BF4A
:103E4000002400BF194903C9CDE9010100BFFDF7F6
:103E5000F9FB4FF4E010FEF784FA4820FFF734FB3B
:103E60004FF4E13000F074F911484168542088475C
:103E7000002004235A044FF4E0010090FCF73AFEBE
:103E8000FCF794FE00F080F90FE00020FEF7FEF949
:103E9000601C84B20A20FFF721FB082101A8FCF76F
:103EA00059FEB4F5FA7F00D10024EEE7585400081B
:103EB000F000002038B5044640F279112046FCF7A6
:103EC000A6FC204600F026F86320E0712072012055
:103ED00060720B4800906B46202250212046FEF76E
:103EE000C3FE04F1180000F0C7F80F252A4605A10B
:103EF00004F12900FCF714FC05F1290038BD00008D
:103F0000FE0FDCBA736B7979752E6E6F64652E6463
:103F1000656D6F003EB50446002002900190206060
:103F2000A080A071FDF77CFB4FF47A71B0FBF1F03B
:103F300000906B46202200212046FEF795FE02AB42
:103F4000022220212046FEF78FFE01AB0322222110
:103F50002046FEF789FE3EBD70B505460C46207E24
:103F6000012805D1E08A012802D12046FFF714FE7E
:103F7000E08A40F20641884202D1204600F062F811
:103F8000E08A0B2802D12046FFF72EFE70BD00000C
:103F90002DE9F04106460D4606B105E040F2AA4281
:103FA00016A11EA0FCF712FB287C002800DD05E00E
:103FB00040F2AB4211A11CA0FCF708FBF06910B95C
:103FC000F561BDE8F081F469F76913E0696860683C
:103FD000FFF703FF40B1F069A04202D12C60F56108
:103FE00001E03D602C60ECE7206808B92560E8E757
:103FF00027462468002CE9D100BFE2E72E2E5C485A
:10400000415244574152455C6C696263616E617212
:10401000645C63616E6172642E630000696E73207C
:10402000213D2030000000006974656D2D3E6672F0
:10403000616D652E646174615F6C656E203E203039
:1040400000000000F8B50646002500240EE00948EF
:1040500000EB440001230E22294600903046FEF773
:1040600059FC0E2800DA03E00E35641C062CEEDB4A
:1040700000BFF8BD080600200146002002E00854F9
:10408000421CD0B21028FADB70470146086870471E
:1040900070B50546049C012B07D1012A05D10D4EB0
:1040A0000D48C1E90060012070BD40F20640824227
:1040B00005D10A4E0A48C1E900600120F4E70B2A45
:1040C00005D1084E0848C1E900600120ECE7002056
:1040D000EAE700009E6AC421818A46EE1D95ECD76E
:1040E000875C7F21D5A4D139F922B6A72DE9F0410B
:1040F0000746884607B105E040F2B76209A111A062
:10410000FCF764FA3C460025A8F1010606E0605D74
:10411000A15D6155A0556D1C761E00BFB542F6D35A
:10412000BDE8F0812E2E5C48415244574152455C17
:104130006C696263616E6172645C63616E6172641A
:104140002E6300006461746120213D203000000076
:1041500010B5044609480A49086008464460002131
:104160008160C160016181610C214161FDF780FFC7
:10417000012204490248FEF709F810BD0038014049
:10418000F0060020B20000207FB5FDF7C5FB054614
:1041900002AA0E49FEF7B2FE044604B101BE002198
:1041A00002A8FEF785FF044604B101BE00200849BD
:1041B000084B4FF48062CDE9001007490748FEF72D
:1041C00009FE0A210548FFF785F87FBD20A10700F9
:1041D00091400008593F000808020020E401002037
:1041E00030B595B0054613AB12AA09A9284600F0D0
:1041F0003FFA044614B1204615B030BD002014909B
:1042000026E0224909689DF8502001EBC20113AB5A
:1042100011AA486801A900F02BFA04460CB1204607
:10422000EAE709A901A800F0E1FC60B99DF84400A3
:104230009DF84810884201DD0220DDE79DF850001E
:10424000124988750AE09DF85000401CC0B21490D5
:104250000E48007D9DF850108842D2DC00BF0B480C
:10426000007D9DF85010884201D10420C4E714A9B4
:10427000284600F0DDFA04460CB12046BCE79DF864
:104280005000024948750020B6E70000F000002009
:104290002DE9F0419AB09C48847D007DA04202DC6B
:1042A0001AB0BDE8F0819849096801EBC40106AB7A
:1042B00007AA486808A900F0DBF908A993A0FBF752
:1042C000FDFF002644E09048008B0121B1400840EA
:1042D000D8B122218FA0FBF7F1FF304600F02EFB72
:1042E00089492431471839468BA0FBF7E7FF222183
:1042F00088A0FBF7E3FF304600F020FB8249243121
:10430000084410A941F8260018E0304600F016FBDA
:104310007D492431085810A941F826007A48C07D0B
:1043200030B910A850F826107CA0FBF7C7FF05E0B5
:1043300010A850F826107AA0FBF7C0FF9DF81C00CB
:10434000401EB04202D078A0FBF7B8FF701CC6B286
:104350009DF81C008642B6DB74A0FBF7AFFF00F0AF
:104360003FFB6948407D0B280DD2DFE800F0060DC9
:10437000151E27323F4E5F7287006349096851F866
:1043800034008047054690E05F4A126852F83410C6
:1043900010988847054688E05B4B1B6853F834202B
:1043A000DDE91001904705467FE0574F3F6857F819
:1043B000343010A807C89847054676E0DFF848C1B2
:1043C000DCF800C05CF8347010A80FC8B847054688
:1043D0006BE01498DFF830C10090DCF800C05CF8A6
:1043E000347010A80FC8B84705465EE0DDE9140137
:1043F000DFF814C1CDE90001DCF800C05CF83470CE
:1044000010A80FC8B84705464FE0DDE9141216980A
:10441000DFF8F4C0CDE900120290DCF800C05CF8CF
:10442000347010A80FC8B84705463EE0DDE91423F4
:10443000DDE91610DFF8D0C0CDE90023CDE9021088
:10444000DCF800C05CF8347010A80FC8B847054607
:104450002BE0DDE91523DDE91710CDE90123CDE9D6
:1044600003101498DFF8A0C00090DCF800C05CF8DE
:10447000347010A80FC8B847054616E0DDE91623CA
:10448000DDE91810CDE90223CDE90410DDE91401BE
:10449000DFF874C0CDE90001DCF800C05CF83470CE
:1044A00010A80FC8B847054600BF00BF00F056FA75
:1044B0009DF8180001280CD11348C07D20B9294669
:1044C0001BA0FBF7FBFE07E029461BA0FBF7F6FE4F
:1044D00002E018A0FBF7F2FE0B4890F8EC0088B160
:1044E0000948D0F8F0000A21B0FBF1F201FB1207F5
:1044F0000548D0F8F000B0FBF1F83A46414611A06B
:10450000FBF7DCFE00BFCBE6F00000200D0A2573B0
:10451000280000002563000025730000256C64005E
:1045200030582558000000002C0000002900000031
:104530003D256C753B0D0A003D305825583B0D0A52
:104540000000000046756E6374696F6E2052756ED0
:104550002054696D653A25642E2531646D730D0A0A
:1045600000000000F0B5034615460020002200269A
:1045700000245BE01F782C2F01D104B901221F78A1
:10458000292F01D01F780FB904B950E0002E3AD17D
:104590001F78302F02DB1F78392F17DD1F782D2F62
:1045A00014D01F782B2F11D01F78612F02DB1F78BA
:1045B000662F0BDD1F78412F02DB1F78462F05DDAC
:1045C0001F78582F02D01F78782F0CD102B12EE01F
:1045D0001F78612F03DB1F78203F0F7001E01F78E9
:1045E0000F70491C1FE01F78222F04D102B11EE07A
:1045F0000126012417E01F78202F14D01F782C2FBC
:1046000011D0FF2613E01F78222F00D1002402B121
:104610000DE044B11F785C2F02D15B1C471CF8B23F
:104620001F780F70491C471CF8B25B1CA2E700BF43
:1046300000270F702E70F0BD10B5044600201070DA
:104640000BE020780870641C491C1078401C107026
:104650001078984201DB012010BD2078202802D07C
:1046600020780028EDD10020087000BFF4E700009A
:104670002DE9FF4F85B08046894600270020049031
:104680000390012002904FF0000B002544461DE0EE
:104690002078202816D005F07F00052812DA0DB901
:1046A00045F0800505F07F00042803D120782A28F2
:1046B00000D00EE0207805F07F010DF80100681CA5
:1046C000C5B202E0852D00D103E0641C20780028EB
:1046D000DED100BF8DB1002005F07F010DF8010093
:1046E00051A1684600F082FA18B9002108980170BB
:1046F00002E001210898017000254FF0000A4446AD
:1047000014E0641C0AF1010000F0FF0A2078202860
:1047100002D020782A2809D1204600F0D9F906468F
:10472000282E03D02A2E01D0CDF810A020782828DA
:1047300002D020780028E4D14446049810B10498AF
:10474000401C04444FF0000A002654E0207810B9C1
:104750004FF0010A50E02078282803D116B9781CC0
:10476000C7B213E02078292808D13EB917B1781EC6
:10477000C7B201E04FF0010A47B93DE02078222896
:1047800004D10EB9012000E00020064647B9207888
:1047900020282FD0207889F8000009F1010929E0AC
:1047A00020782C2804D101200290681CC5B214E0A6
:1047B0002078202811D0207828280ED04DB9BBF1C0
:1047C000050F06DA20780DF80B000BF1010000F060
:1047D000FF0B0298401CC0B20290012F0AD1029830
:1047E000022807D10298401CC0B202900398401CD6
:1047F000C0B20390641CA9E700BF0398012809D147
:1048000000200DF80B0008A1684600F0EFF908B988
:1048100000200390079903980870002089F8000091
:10482000504609B0BDE8F08F766F69640000000063
:104830002DE9F043B5B005460F460024002604E0FC
:1048400000213D488155701CC6B20A2EF8DB06E0F7
:104850006D1C287818B9012035B0BDE8F0832878A0
:104860002828F5D16D1C61E034AA69462846FFF777
:1048700079FE064635449DF8D00020B1012827D0A6
:10488000FF284CD149E09DF8000000B333A96846E9
:1048900000F029F906460EB10220DDE7204600F0BF
:1048A0004DF825490A31339A0A50A1F12400008BB2
:1048B0000121A140884320491A39088304211E4858
:1048C0000155601CC4B20A2C01DD0320C4E726E0B8
:1048D000684600F0A7F9401C00F0FF08204600F0F1
:1048E0002DF815490A3100EB01094946684600F0E8
:1048F0008EF911481A38018B0120A040014388B27B
:104900000D491A3908830C4800F80480601CC4B2B1
:104910000A2C01DD03209FE701E002209CE700BF95
:104920002878292801D0287800B900E09CE700BF4A
:104930003C70002090E700000A01002002460020A1
:10494000002105E0044B5B5C0344D8B24B1CD9B298
:104950009142F7DB704700000A0100200E48006812
:10496000006900F0010040B10C48D0F8F0004FF6AB
:10497000FF7108440949C1F8F0000848D0F8F00078
:1049800005490968496A08440449C1F8F000084625
:10499000D0F8F000704700008C070020F0000020E5
:1049A00010B5044604EBC40000EB04100122C2EB76
:1049B000800081B24FF47A70FDF79EFD012001491D
:1049C000C87510BDF000002010B50246012000E0BF
:1049D00050430B1EA1F10104E1B2F9D110BD00005A
:1049E0006FF0010009490968086100BF000C074920
:1049F0000968C86201460548C16000BF002003493C
:104A0000096848620249C1F8F00070478C0700202D
:104A1000F000002070B51D48008800F40040002818
:104A200033D01A480578002019494855194881683B
:104A30001748884704461CB91649C868804721E0D2
:104A4000134800F0FBF80546012D00D02C46CCB1F0
:104A5000012C06D0022C08D0032C0AD0042C10D133
:104A60000BE00DA0FBF72AFC0BE00EA0FBF726FCE9
:104A700007E00FA0FBF722FC03E010A0FBF71EFCF1
:104A800000BF00BF00200149088070BDB0000020B9
:104A900028060020F0000020BAAFCAFDB4EDCEF326
:104AA000210D0A00B2CECAFDB4EDCEF3210D0A00ED
:104AB000B2CECAFDCCABB6E0210D0A00CEB4D5D241
:104AC000B5BDC6A5C5E4B5C4BAAFCAFD210D0A007F
:104AD0000146491C00E0491C0878202801D1002922
:104AE000F9D1087870472DE9F04F05460F460026AA
:104AF0004FF00A09B3462C460020386034E0207895
:104B0000392802DC2078302811DA28782D2802D0C4
:104B100028782B2800D156B12078462802DC20784E
:104B2000412804DA2078582817D1012E15D1207891
:104B3000412801DB4FF0100928782D2803D14FF0D0
:104B4000020B6D1C0FE028782B2803D14FF0010BCE
:104B50006D1C08E0701CC6B205E0207800B904E0C6
:104B60000120BDE8F08F641CC9E700BF2C46B9F1F5
:104B7000100F0FD1032E01DA0220F2E7207830283F
:104B800006D16078582803D1A41CB01EC6B204E038
:104B90000320E6E70EB90420E3E71BE00EB1701E28
:104BA000C6B22078392806DC2078302803DB20784C
:104BB000A0F1300A02E02078A0F1370A31464846D9
:104BC000FFF702FF39680AFB00103860641C207888
:104BD00000B900E0E2E700BFBBF1020F04D1386882
:104BE000C0F10008C7F800800020BAE702460AE0DA
:104BF00010780B78984201D001207047107800B9E6
:104C000002E0521C491CF3E700BF0020F5E706E074
:104C100002780A70027802B902E0401C491CF7E7EA
:104C200000BF70470146002005E00A7802B903E0A2
:104C3000421CD0B2491CF8E700BF704710B58CB0D9
:104C400004461E230BAA03A92046FFF7F5FC00909B
:104C5000009810B101200CB010BD9DF82C00044448
:104C600000200B900EE040489DF82C2050F82210B8
:104C700003A8FFF7BBFF00B908E09DF82C00401C1B
:104C8000C0B20B909DF82C000728ECD300BF9DF814
:104C90002C00072863D2DFE800F004053C5E656461
:104CA000630000BF31A0FBF709FB31A0FBF706FB57
:104CB0003FA0FBF703FB4EA0FBF700FB5CA0FBF75C
:104CC000FDFA6BA0FBF7FAFA79A0FBF7F7FA87A0D9
:104CD000FBF7F4FA8CA0FBF7F1FA94A0FBF7EEFADD
:104CE00098A0FBF7EBFA9DA0FBF7E8FAA2A0FBF770
:104CF000E5FAA8A0FBF7E2FAB4A0FBF7DFFAC1A03F
:104D0000FBF7DCFACCA0FBF7D9FAD8A0FBF7D6FA70
:104D1000A2E216A0FBF7D2FAE4A0FBF7CFFA00203C
:104D20000B900EE0F14800689DF82C2000EBC200CB
:104D30004168EFA0FBF7C2FA9DF82C00401CC0B2FE
:104D40000B90EA48007D9DF82C108842EADC07A011
:104D5000FBF7B4FA80E205A0FBF7B0FACCE179E208
:104D60004DE221E2F4E10000B40000200D0A000051
:104D70002D2D2D2D2D2D2D2D2D2D2D2D2D2D2D2D63
:104D80002D2D2D2D2D2D2D2D55534D415254205669
:104D9000332E332D2D2D2D2D2D2D2D2D2D2D2D2D36
:104DA0002D2D2D2D2D2D2D2D2D2D2D200D0A0000DD
:104DB0002020202055534D415254CAC7D3C9414CDD
:104DC00049454E54454BBFAAB7A2B5C4D2BBB8F6AD
:104DD000C1E9C7C9B5C4B4AEBFDAB5F7CAD4BBA57B
:104DE000BDBBD7E9BCFE2CCDA8B9FD200D0A000043
:104DF000CBFC2CC4E3BFC9D2D4CDA8B9FDB4AEBF9F
:104E0000DAD6FACAD6B5F7D3C3B3CCD0F2C0EFC363
:104E1000E6B5C4C8CEBACEBAAFCAFD2CB2A2D6B4DB
:104E2000D0D02ED2F2B4CB2CC4E3BFC90D0A0000FF
:104E3000D2D4CBE6D2E2B8FCB8C4BAAFCAFDB5C48E
:104E4000CAE4C8EBB2CECAFD28D6A7B3D6CAFDD7EE
:104E5000D62831302F3136BDF8D6C62CD6A7B3D6DA
:104E6000B8BACAFD29A1A2D7D6B7FBB4AE0D0A00C5
:104E7000A1A2BAAFCAFDC8EBBFDAB5D8D6B7B5C8DC
:104E8000D7F7CEAAB2CECAFD292CB5A5B8F6BAAFCF
:104E9000CAFDD7EEB6E0D6A7B3D63130B8F6CAE42D
:104EA000C8EBB2CECAFD2CB2A2D6A7B3D60D0A006B
:104EB000BAAFCAFDB7B5BBD8D6B5CFD4CABE2ED609
:104EC000A7B3D6B2CECAFDCFD4CABEBDF8D6C6C926
:104ED000E8D6C3B9A6C4DC2CD6A7B3D6BDF8D6C6CF
:104EE000D7AABBBBB9A6C4DC2E0D0A00BCBCCAF550
:104EF000D6A7B3D63A7777772E6F70656E656476EE
:104F00002E636F6D0D0A000055534D415254D3D09E
:104F100037B8F6CFB5CDB3C3FCC1EE28B1D8D0EBCE
:104F2000D0A1D0B4293A0D0A000000003F3A202059
:104F300020202020BBF1C8A1B0EFD6FAD0C5CFA267
:104F40000D0A000068656C703A202020BBF1C8A1F2
:104F5000B0EFD6FAD0C5CFA20D0A00006C69737409
:104F60003A202020BFC9D3C3B5C4BAAFCAFDC1D04F
:104F7000B1ED0D0A0A00000069643A2020202020CB
:104F8000BFC9D3C3BAAFCAFDB5C44944C1D0B1ED9E
:104F90000D0A0A006865783A20202020B2CECAFDAA
:104FA0003136BDF8D6C6CFD4CABE2CBAF3B8FABFD4
:104FB000D5B8F12BCAFDD7D6BCB4D6B4D0D0BDF885
:104FC000D6C6D7AABBBB0D0A0A0000006465633AC7
:104FD00020202020B2CECAFD3130BDF8D6C6CFD4B5
:104FE000CABE2CBAF3B8FABFD5B8F12BCAFDD7D6D2
:104FF000BCB4D6B4D0D0BDF8D6C6D7AABBBB0D0AB8
:105000000A00000072756E74696D653A312CBFAA92
:10501000C6F4BAAFCAFDD4CBD0D0BCC6CAB13B30FF
:105020002CB9D8B1D5BAAFCAFDD4CBD0D0BCC6CA82
:10503000B13B0D0A0A000000C7EBB0B4D5D5B3CC24
:10504000D0F2B1E0D0B4B8F1CABDCAE4C8EBBAAF8F
:10505000CAFDC3FBBCB0B2CECAFDB2A2D2D4BBD88B
:10506000B3B5BCFCBDE1CAF82E0D0A002D2D2D2DC7
:105070002D2D2D2D2D2D2D2D2D2D2D2D2D2D2D2D60
:105080002D2D2D2D2D2D414C49454E54454B2D2D6B
:105090002D2D2D2D2D2D2D2D2D2D2D2D2D2D2D2D40
:1050A0002D2D2D2D2D2D2D200D0A00002D2D2D2DDA
:1050B0002D2D2D2D2D2D2D2D2D2D2D2D2D2D2D2D20
:1050C0002D2D2D2D2DBAAFCAFDC7E5B5A52D2D2D42
:1050D0002D2D2D2D2D2D2D2D2D2D2D2D2D2D2D2D00
:1050E0002D2D2D2D2D2D2D2D200D0A00F000002011
:1050F00025730D0A0000000059A0FBF7DFF800201F
:105100000B901AE0664909689DF82C2001EBC2015A
:1051100001AB02AA486803A9FFF7AAFA6048006831
:105120009DF82C1050F8312003A95EA0FBF7C6F8BB
:105130009DF82C00401CC0B20B905948007D9DF892
:105140002C108842DEDCAFF2DC30FBF7B7F883E0EE
:10515000AFF2E830FBF7B2F80BAA03A92046FFF73D
:1051600001FA9DF82C00C8B9694603A8FFF7BBFCFB
:105170000B909DF82C0020B94FA00099FBF79EF8EA
:105180000EE09DF82C00042801D0022063E54DA01C
:10519000FBF794F801204249C87501E002205AE566
:1051A00047A0FBF78BF857E045A0FBF787F80BAA61
:1051B00003A92046FFF7D6F99DF82C00C8B9694627
:1051C00003A8FFF790FC0B909DF82C0020B942A09B
:1051D0000099FBF773F80EE09DF82C00042801D02D
:1051E000022038E53FA0FBF769F800202C49C8757C
:1051F00001E002202FE532A0FBF760F82CE030A0A0
:10520000FBF75CF80BAA03A92046FFF7ABF99DF862
:105210002C00C8B9694603A8FFF765FC0B909DF800
:105220002C0078B91E49009881F8EC00084690F8E7
:10523000EC0018B130A0FBF741F807E035A0FBF710
:105240003DF803E0022006E5022004E51CA0FBF780
:1052500035F801E00120FEE400BF0020FBE400007F
:105260002D2D2D2D2D2D2D2D2D2D2D2D2D2D2D2D6E
:105270002D2D2D2D2D2D2D2D2DBAAFCAFD204944BC
:10528000202D2D2D2D2D2D2D2D2D2D2D2D2D2D2D5B
:105290002D2D2D2D2D2D2D2D2D2D2D2D200D0A00BB
:1052A000F000002025732069642069733A0D0A30EC
:1052B00058253038580D0A004845583A3058255876
:1052C0000D0A00003136BDF8D6C6B2CECAFDCFD425
:1052D000CABE210D0A0000004445433A256C750DF5
:1052E0000A0000003130BDF8D6C6B2CECAFDCFD418
:1052F000CABE210D0A00000052756E2054696D650A
:105300002043616C63756C6174696F6E204F4E0D44
:105310000A00000052756E2054696D652043616C6F
:1053200063756C6174696F6E204F46460D0A00000C
:1053300010B50246002308E0506800F001048C42DA
:1053400001D1012010BD581C83B2B3F57A7FF3DB85
:105350000020F7E701607047808386898C909396E0
:10536000999C9FA2A5A8ABAEB1B3B6B9BCBFC1C44E
:10537000C7C9CCCED1D3D5D8DADCDEE0E2E4E6E8AA
:10538000EAEBEDEFF0F1F3F4F5F6F8F9FAFAFBFCDD
:10539000FDFDFEFEFEFFFFFFFFFFFFFFFEFEFEFD29
:1053A000FDFCFBFAFAF9F8F6F5F4F3F1F0EFEDEBAA
:1053B000EAE8E6E4E2E0DEDCDAD8D5D3D1CECCC947
:1053C000C7C4C1BFBCB9B6B3B1AEABA8A5A29F9CC0
:1053D000999693908C898683807D7A7774706D6AB4
:1053E0006764615E5B5855524F4D4A4744413F3CAC
:1053F000393734322F2D2B28262422201E1C1A1830
:1054000016151311100F0D0C0B0A080706060504DC
:105410000303020202010101010101010202020370
:10542000030405060607080A0B0C0D0F10111315CF
:1054300016181A1C1E20222426282B2D2F32343712
:10544000393C3F4144474A4D4F5255585B5E616479
:10545000676A6D7074777A7DFF00000000000000BD
:105460000000000000000000010203040607080914
:105470000000000001020304303132333435363786
:105480003839414243444546403058003031323388
:105490003435363738396162636465664030780088
:1054A00004000008000000000000000200010000ED
:1054B00010000000706172616D30000070617261F7
:1054C0006D310000706172616D320000282828285B
:1054D000766F6C6174696C652043616E61726453B0
:1054E000544D333243414E547970652A2930783413
:1054F0003030303634303055292D3E464D52203E26
:105500003E20385529202620307833465529203D25
:105510003D203134550000003F0000006465630009
:105520006964000072756E74696D650068656C7001
:10553000000000006C69737400000000686578006A
:10554000766F69642077726974655F61646472283C
:1055500075333220616464722C7533322076616C4D
:105560002900000075333220726561645F616464F4
:10557000722875333220616464722900766F696421
:105580002064656C61795F6D7328753136206E6DAE
:1055900073290000766F69642064656C61795F75BA
:1055A0007328753332206E7573290000CC550008BE
:1055B00000000020E40100006C01000840560008D3
:1055C000E40100204C0C0000C801000811D324F4B1
:1055D00013B454C208720A7214720F5ABC28F20132
:1055E000726472195AC428720269086965021F033D
:1055F0000A101064140118551B082C041A34041ADC
:1056000020041A3C041A1C041A2404138B401B089F
:1056100064081355531B08400813DD341B087C082D
:105620001AF5081A940822D01420A1491408E1415F
:10563000140891421408154A0B100804C701CD0044
:0400000508000131BD
:00000001FF
